:020000040800F2
:1000000000280020E90B00088D0B0008930B000866
:10001000990B00089F0B0008A50B000800000000CA
:10002000000000000000000000000000AB0B000812
:10003000B70B000800000000C30B0008CF0B00083E
:10004000310C0008310C0008310C0008310C00089C
:10005000310C0008310C0008310C0008310C00088C
:10006000310C0008310C0008310C0008310C00087C
:10007000310C0008310C0008310C0008310C00086C
:10008000310C0008310C0008310C0008310C00085C
:10009000310C0008310C0008310C0008310C00084C
:1000A000310C0008310C0008310C0008310C00083C
:1000B000310C0008310C000800000000310C000871
:1000C000310C00080000000000000000310C0008A6
:1000D00000000000310C0008310C00080000000096
:1000E000310C0008310C0008310C00080000000041
:1000F0000000000000000000000000000000000000
:0C01000000000000000000005FF808F1A3
:10010C0010B5054C237833B9044B13B10448AFF345
:10011C0000800123237010BD180000200000000097
:10012C003C1A000808B5034B1BB103490348AFF355
:10013C00008008BD000000001C0000203C1A0008D4
:10014C0080B582B000AF78607B68092B00F28081AB
:10015C0001A252F823F000BF8D010008D501000860
:10016C001D02000865020008AD020008F502000837
:10017C003D03000885030008CD03000815040008A2
:10018C0000220121B54801F033F800220221B348C6
:10019C0001F02EF800220421B04801F029F80022C9
:1001AC000821AE4801F024F800221021AB4801F0E0
:1001BC001FF800222021A94801F01AF80122402141
:1001CC00A64801F015F844E101220121A34801F0F1
:1001DC000FF800220221A14801F00AF800220421A4
:1001EC009E4801F005F8012208219C4801F000F816
:1001FC0001221021994800F0FBFF01222021974891
:10020C0000F0F6FF01224021944800F0F1FF20E1BC
:10021C0000220121914800F0EBFF002202218F48BF
:10022C0000F0E6FF012204218C4800F0E1FF0022DF
:10023C0008218A4800F0DCFF00221021874800F0DA
:10024C00D7FF01222021854800F0D2FF0022402157
:10025C00824800F0CDFFFCE0002201217F4800F035
:10026C00C7FF002202217D4800F0C2FF00220421BA
:10027C007A4800F0BDFF00220821784800F0B8FF52
:10028C0001221021754800F0B3FF01222021734890
:10029C0000F0AEFF00224021704800F0A9FFD8E02A
:1002AC00012201216D4800F0A3FF002202216B48BE
:1002BC0000F09EFF00220421684800F099FF012203
:1002CC000821664800F094FF01221021634800F0D9
:1002DC008FFF00222021614800F08AFF002240217C
:1002EC005E4800F085FFB4E0002201215B4800F07D
:1002FC007FFF01220221594800F07AFF00220421DD
:10030C00564800F075FF00220821544800F070FF99
:10031C0001221021514800F06BFF002220214F4890
:10032C0000F066FF002240214C4800F061FF90E095
:10033C0000220121494800F05BFF012202214748BD
:10034C0000F056FF00220421444800F051FF002227
:10035C000821424800F04CFF002210213F4800F0D9
:10036C0047FF002220213D4800F042FF002240219F
:10037C003A4800F03DFF6CE000220121374800F0C4
:10038C0037FF00220221354800F032FF0022042101
:10039C00324800F02DFF01220821304800F028FFE0
:1003AC00012210212D4800F023FF012220212B488F
:1003BC0000F01EFF01224021284800F019FF48E000
:1003CC0000220121254800F013FF002202212348BE
:1003DC0000F00EFF00220421204800F009FF00224B
:1003EC0008211E4800F004FF002210211B4800F0D9
:1003FC00FFFE00222021194800F0FAFE00224021C5
:10040C00164800F0F5FE24E000220121134800F00C
:10041C00EFFE00220221114800F0EAFE0022042126
:10042C000E4800F0E5FE002208210C4800F0E0FE2A
:10043C0001221021094800F0DBFE00222021074890
:10044C0000F0D6FE00224021044800F0D1FE00E06E
:10045C0000BF00BF0837BD4680BD00BF000C014087
:10046C0080B582B000AF78607B68092B00F2BC814C
:10047C0001A252F823F000BFAD04000801050008EA
:10048C0055050008A9050008FD05000851060008DF
:10049C00A5060008F90600084D070008A10700088A
:1004AC0000228021D34800F0A3FE00224FF480717B
:1004BC00D04800F09DFE00224FF40071CD4800F0B2
:1004CC0097FE00224FF48061CA4800F091FE002292
:1004DC004FF40061C74800F08BFE00224FF48051AE
:1004EC00C44800F085FE01224FF40051C14800F0D1
:1004FC007FFE7AE101228021BE4800F079FE0022C5
:10050C004FF48071BB4800F073FE00224FF4007171
:10051C00B84800F06DFE01224FF48061B54800F040
:10052C0067FE01224FF40061B24800F061FE012227
:10053C004FF48051AF4800F05BFE01224FF40051A4
:10054C00AC4800F055FE50E100228021A94800F093
:10055C004FFE00224FF48071A64800F049FE0122A4
:10056C004FF40071A34800F043FE00224FF4806169
:10057C00A04800F03DFE00224FF400619D4800F0C1
:10058C0037FE01224FF480519A4800F031FE0022D0
:10059C004FF40051974800F02BFE26E100228021F9
:1005AC00944800F025FE00224FF48071914800F031
:1005BC001FFE00224FF400718E4800F019FE00223D
:1005CC004FF480618B4800F013FE01224FF4006160
:1005DC00884800F00DFE01224FF48051854800F050
:1005EC0007FE00224FF40051824800F001FEFCE0AF
:1005FC00012280217F4800F0FBFD00224FF4807126
:10060C007C4800F0F5FD00224FF40071794800F0B1
:10061C00EFFD01224FF48061764800F0E9FD0122E4
:10062C004FF40061734800F0E3FD00224FF4805159
:10063C00704800F0DDFD00224FF400516D4800F0D1
:10064C00D7FDD2E0002280216A4800F0D1FD0122C2
:10065C004FF48071674800F0CBFD00224FF400711D
:10066C00644800F0C5FD00224FF48061614800F041
:10067C00BFFD01224FF400615E4800F0B9FD00227D
:10068C004FF480515B4800F0B3FD00224FF4005151
:10069C00584800F0ADFDA8E000228021554800F03C
:1006AC00A7FD01224FF48071524800F0A1FD0022F9
:1006BC004FF400714F4800F09BFD00224FF4806115
:1006CC004C4800F095FD00224FF40061494800F0C1
:1006DC008FFD00224FF48051464800F089FD002226
:1006EC004FF40051434800F083FD7EE0002280214E
:1006FC00404800F07DFD00224FF480713D4800F031
:10070C0077FD00224FF400713A4800F071FD012290
:10071C004FF48061374800F06BFD01224FF400610B
:10072C00344800F065FD01224FF48051314800F04F
:10073C005FFD01224FF400512E4800F059FD54E0AA
:10074C00002280212B4800F053FD00224FF48071D1
:10075C00284800F04DFD00224FF40071254800F0B0
:10076C0047FD00224FF48061224800F041FD002239
:10077C004FF400611F4800F03BFD00224FF4805104
:10078C001C4800F035FD00224FF40051194800F0D0
:10079C002FFD2AE000228021164800F029FD0022BE
:1007AC004FF48071134800F023FD00224FF40071C8
:1007BC00104800F01DFD00224FF480610D4800F040
:1007CC0017FD01224FF400610A4800F011FD0022D0
:1007DC004FF48051074800F00BFD00224FF40051FC
:1007EC00044800F005FD00E000BF00BF0837BD461F
:1007FC0080BD00BF000C014080B584B000AF002369
:10080C00FB600023BB60704B1B687B606F4B1B68ED
:10081C003B607868FFF794FCFB68022B41D0FB68C7
:10082C00022B5ADCFB68002B03D0FB68012B1CD07D
:10083C0053E000220221664800F0DAFC01224FF45A
:10084C008071634800F0D4FC01220821604800F05C
:10085C00CFFC7B68013B7B607B68002B3FD1012385
:10086C00FB605A4B1B687B6039E00122022158481F
:10087C0000F0BEFC01224FF48071554800F0B8FC2A
:10088C0000220821524800F0B3FC7B68013B7B60DE
:10089C007B68002B25D10223FB604E4B1B687B60D1
:1008AC001FE0012202214A4800F0A2FC00224FF472
:1008BC008071474800F09CFC01220821444800F05C
:1008CC0097FC7B68013B7B607B68002B0BD1002382
:1008DC00FB603D4B1B687B6005E000BF04E000BF84
:1008EC0002E000BF00E000BF3868FFF7B9FDBB684D
:1008FC00022B41D0BB68022B5ADCBB68002B03D007
:10090C00BB68012B1CD053E000220421304800F0BE
:10091C006FFC01224FF400712D4800F069FC01229C
:10092C0010212B4800F064FC3B68013B3B603B68AA
:10093C00002B3FD10123BB60244B1B683B6039E08B
:10094C0001220421224800F053FC01224FF40071D3
:10095C001F4800F04DFC002210211D4800F048FCFF
:10096C003B68013B3B603B68002B25D10223BB60FD
:10097C00184B1B683B601FE001220421144800F057
:10098C0037FC00224FF40071114800F031FC0122B9
:10099C0010210F4800F02CFC3B68013B3B603B688E
:1009AC00002B0BD10023BB60074B1B683B6005E0A1
:1009BC0000BF04E000BF02E000BF00E000BF4FF446
:1009CC007A7000F093F924E7000000200400002066
:1009DC00000801400800002080B500AF00F024F9A9
:1009EC0000F005F800F03EF8FFF706FFFCE780B5D5
:1009FC0090B000AF07F1180328220021184601F02F
:100A0C000FF83B1D00221A605A609A60DA601A6176
:100A1C000223BB610123BB621023FB6200237B63B7
:100A2C0007F11803184600F0FBFB0346002B01D01E
:100A3C0000F06EF80F237B600023BB600023FB608B
:100A4C0000233B6100237B613B1D0021184600F015
:100A5C0067FE0346002B01D000F05AF800BF403768
:100A6C00BD4680BD80B586B000AF07F108030022FB
:100A7C001A605A609A60DA60224B9B69214A43F0F3
:100A8C00040393611F4B9B6903F004037B607B6839
:100A9C001C4B9B691B4A43F008039361194B9B69E0
:100AAC0003F008033B603B68002240F2FE3116481D
:100ABC0000F09EFB002243F6FF71144800F098FBF7
:100ACC0040F2FE33BB600123FB6000233B61022339
:100ADC007B6107F1080319460B4800F00FFA43F647
:100AEC00FF73BB600123FB6000233B6102237B612E
:100AFC0007F108031946054800F000FA00BF183743
:100B0C00BD4680BD0010024000080140000C0140B1
:100B1C0080B400AF72B600BFFEE7000080B485B0B1
:100B2C0000AF154B9B69144A43F001039361124BC0
:100B3C009B6903F00103BB60BB680F4BDB690E4A7A
:100B4C0043F08053D3610C4BDB6903F080537B6023
:100B5C007B680A4B5B68FB60FB6823F0E063FB601F
:100B6C00FB6843F08063FB60044AFB68536000BF82
:100B7C001437BD4680BC7047001002400000014095
:100B8C0080B400AFFEE780B400AFFEE780B400AFE6
:100B9C00FEE780B400AFFEE780B400AFFEE780B4A0
:100BAC0000AF00BFBD4680BC704780B400AF00BF33
:100BBC00BD4680BC704780B400AF00BFBD4680BC52
:100BCC00704780B500AF00F075F800BF80BD80B4F1
:100BDC0000AF00BFBD4680BC70470000FFF7F7FFB9
:100BEC000B480C490C4A002302E0D458C45004337F
:100BFC00C4188C42F9D3094A094C002301E0136054
:100C0C000432A242FBD300F0E7FEFFF7E5FE70478B
:100C1C000000002018000020801A00081800002096
:100C2C0038000020FEE7000080B500AF084B1B68C1
:100C3C00074A43F010031360032000F02BF90F2038
:100C4C0000F008F8FFF76AFF0023184680BD00BFCC
:100C5C000020024080B582B000AF7860124B1A6859
:100C6C00124B1B7819464FF47A73B3FBF1F3B2FBBA
:100C7C00F3F3184600F035F90346002B01D001239D
:100C8C000EE07B680F2B0AD8002279684FF0FF30FA
:100C9C0000F00BF9064A7B681360002300E0012387
:100CAC0018460837BD4680BD0C00002014000020FB
:100CBC001000002080B400AF054B1B781A46054B82
:100CCC001B681344034A136000BFBD4680BC7047C9
:100CDC00140000203400002080B400AF024B1B68CD
:100CEC001846BD4680BC70473400002080B584B0E7
:100CFC0000AF7860FFF7F0FFB8607B68FB60FB68C3
:100D0C00B3F1FF3F05D00A4B1B781A46FB6813441E
:100D1C00FB6000BFFFF7E0FF0246BB68D31AFA681E
:100D2C009A42F7D800BF00BF1037BD4680BD00BF48
:100D3C001400002080B485B000AF78607B6803F0AD
:100D4C000703FB600C4BDB68BB60BA684FF6FF0314
:100D5C001340BB60FB681A02BB68134343F0BF63CC
:100D6C0043F40033BB60044ABB68D36000BF143744
:100D7C00BD4680BC704700BF00ED00E080B400AF02
:100D8C00044BDB681B0A03F007031846BD4680BC06
:100D9C00704700BF00ED00E080B483B000AF0346A5
:100DAC003960FB7197F90730002B0ADB3B68DAB22C
:100DBC000C4997F907301201D2B20B4483F8002387
:100DCC000AE03B68DAB20849FB7903F00F03043BF5
:100DDC001201D2B20B441A7600BF0C37BD4680BC50
:100DEC00704700BF00E100E000ED00E080B489B086
:100DFC0000AFF860B9607A60FB6803F00703FB6131
:100E0C00FB69C3F10703042B28BF0423BB61FB69F7
:100E1C000433062B02D9FB69033B00E000237B6102
:100E2C004FF0FF32BB6902FA03F3DA43BB681A4096
:100E3C007B699A404FF0FF317B6901FA03F3D94388
:100E4C007B680B40134318462437BD4680BC704763
:100E5C0080B582B000AF78607B68013BB3F1807FD6
:100E6C0001D301230FE00A4A7B68013B53600F2139
:100E7C004FF0FF30FFF790FF054B00229A60044BB8
:100E8C0007221A60002318460837BD4680BD00BFF4
:100E9C0010E000E080B582B000AF78607868FFF7B2
:100EAC0049FF00BF0837BD4680BD80B586B000AF96
:100EBC000346B9607A60FB7300237B61FFF75EFF2A
:100ECC0078617A68B9687869FFF790FF024697F9FC
:100EDC000F3011461846FFF75FFF00BF1837BD46AD
:100EEC0080BD80B582B000AF78607868FFF7B0FF46
:100EFC00034618460837BD4680BD000080B48BB051
:100F0C0000AF7860396000237B6200233B6248E1CC
:100F1C0001227B6A02FA03F3FB613B681B68FA69E6
:100F2C001340BB61BA69FB699A4240F037813B6858
:100F3C005B68A34A93425ED0A14A934275D8A14AFA
:100F4C00934258D09F4A93426FD89F4A934252D0B3
:100F5C009D4A934269D89D4A93424CD09B4A9342F6
:100F6C0063D89B4A934246D0994A93425DD8122B40
:100F7C002AD8122B59D801A252F823F003100008DA
:100F8C00DD0F0008EF0F00083110000837100008C3
:100F9C003710000837100008371000083710000809
:100FAC0037100008371000083710000837100008F9
:100FBC0037100008371000083710000837100008E9
:100FCC00E50F0008F90F0008824A934213D02CE079
:100FDC003B68DB683B6229E03B68DB6804333B62BF
:100FEC0024E03B68DB6808333B621FE03B68DB684E
:100FFC000C333B621AE03B689B68002B02D1042344
:10100C003B6213E03B689B68012B05D108233B62D4
:10101C007B68FA691A6109E008233B627B68FA690C
:10102C005A6103E000233B6200E000BFBB69FF2B69
:10103C0001D87B6801E07B6804337B61BB69FF2BC3
:10104C0002D87B6A9B0002E07B6A083B9B003B61F9
:10105C007B691A680F213B6901FA03F3DB431A40E1
:10106C00396A3B6901FA03F31A437B691A603B68DE
:10107C005B6803F08053002B00F09080564B9B690B
:10108C00554A43F001039361534B9B6903F00103F1
:10109C00BB60BB68514A7B6A9B08023352F8233011
:1010AC00FB607B6A03F003039B000F2202FA03F33D
:1010BC00DB43FA681340FB607B68494A93420DD0CE
:1010CC007B68484A934207D07B68474A934201D1D8
:1010DC00022304E0032302E0012300E000237A6AE8
:1010EC0002F0030292009340FA681343FB603B4901
:1010FC007B6A9B080233FA6841F823203B685B68E3
:10110C0003F48013002B06D0384B9A683749BB691F
:10111C0013438B6006E0354B9A68BB69DB4333495C
:10112C0013408B603B685B6803F40013002B06D004
:10113C002E4BDA682D49BB691343CB6006E02B4B71
:10114C00DA68BB69DB4329491340CB603B685B68B9
:10115C0003F40033002B06D0244B5A682349BB6997
:10116C0013434B6006E0214B5A68BB69DB431F49B4
:10117C0013404B603B685B6803F48033002B06D054
:10118C001A4B1A681949BB6913430B6006E0174BDD
:10119C001A68BB69DB43154913400B607B6A01334A
:1011AC007B623B681A687B6A22FA03F3002B7FF49C
:1011BC00AFAE00BF00BF2C37BD4680BC704700BF30
:1011CC00000032100000311000002210000021102D
:1011DC00000012100000111000100240000001402D
:1011EC0000080140000C01400010014000040140C7
:1011FC0080B483B000AF78600B467B8013467B7065
:10120C007B78002B03D07A887B681A6103E07B889B
:10121C001A047B681A6100BF0C37BD4680BC70474E
:10122C0080B586B000AF78607B68002B01D10123BC
:10123C006CE27B681B6803F00103002B00F08780D5
:10124C00924B5B6803F00C03042B0CD08F4B5B6848
:10125C0003F00C03082B12D18C4B5B6803F4803326
:10126C00B3F5803F0BD1894B1B6803F40033002B83
:10127C006CD07B685B68002B68D1012346E27B68ED
:10128C005B68B3F5803F06D1804B1B687F4A43F403
:10129C00803313602EE07B685B68002B0CD17B4B9A
:1012AC001B687A4A23F480331360784B1B68774AA7
:1012BC0023F4802313601DE07B685B68B3F5A02FDB
:1012CC000CD1724B1B68714A43F4802313606F4B33
:1012DC001B686E4A43F4803313600BE06B4B1B6846
:1012EC006A4A23F480331360684B1B68674A23F403
:1012FC00802313607B685B68002B13D0FFF7ECFC3A
:10130C00386108E0FFF7E8FC02463B69D31A642B0E
:10131C0001D90323FAE15D4B1B6803F40033002B66
:10132C00F0D014E0FFF7D8FC386108E0FFF7D4FCEC
:10133C0002463B69D31A642B01D90323E6E1534BD4
:10134C001B6803F40033002BF0D100E000BF7B6876
:10135C001B6803F00203002B63D04C4B5B6803F05B
:10136C000C03002B0BD0494B5B6803F00C03082BD0
:10137C001CD1464B5B6803F48033002B16D1434BD6
:10138C001B6803F00203002B05D07B681B69012B43
:10139C0001D00123BAE13D4B1B6823F0F8027B68B6
:1013AC005B69DB00394913430B603AE07B681B69CE
:1013BC00002B20D0364B01221A60FFF78DFC3861D0
:1013CC0008E0FFF789FC02463B69D31A022B01D9CE
:1013DC0003239BE12D4B1B6803F00203002BF0D081
:1013EC002A4B1B6823F0F8027B685B69DB002749FA
:1013FC0013430B6015E0264B00221A60FFF76CFCC0
:10140C00386108E0FFF768FC02463B69D31A022BEF
:10141C0001D903237AE11D4B1B6803F00203002B57
:10142C00F0D17B681B6803F00803002B3AD07B6873
:10143C009B69002B19D0174B01221A60FFF74CFC4B
:10144C00386108E0FFF748FC02463B69D31A022BCF
:10145C0001D903235AE10D4B5B6A03F00203002B05
:10146C00F0D0012000F09AFA1CE00A4B00221A601E
:10147C00FFF732FC38610FE0FFF72EFC02463B69A8
:10148C00D31A022B08D9032340E100BF00100240FD
:10149C0000004242800442429E4B5B6A03F002030E
:1014AC00002BE9D17B681B6803F00403002B00F0D0
:1014BC00A6800023FB75974BDB6903F08053002B50
:1014CC000DD1944BDB69934A43F08053D361914B1C
:1014DC00DB6903F08053BB60BB680123FB758E4B4B
:1014EC001B6803F48073002B18D18B4B1B688A4A42
:1014FC0043F480731360FFF7EFFB386108E0FFF7EC
:10150C00EBFB02463B69D31A642B01D90323FDE0A4
:10151C00814B1B6803F48073002BF0D07B68DB6875
:10152C00012B06D17B4B1B6A7A4A43F001031362F1
:10153C002DE07B68DB68002B0CD1764B1B6A754A5F
:10154C0023F001031362734B1B6A724A23F00403EA
:10155C0013621CE07B68DB68052B0CD16D4B1B6A9E
:10156C006C4A43F0040313626A4B1B6A694A43F0EA
:10157C00010313620BE0674B1B6A664A23F00103FD
:10158C001362644B1B6A634A23F0040313627B6887
:10159C00DB68002B15D0FFF79FFB38610AE0FFF7E3
:1015AC009BFB02463B69D31A41F28832934201D924
:1015BC000323ABE0574B1B6A03F00203002BEED066
:1015CC0014E0FFF789FB38610AE0FFF785FB024660
:1015DC003B69D31A41F28832934201D9032395E037
:1015EC004C4B1B6A03F00203002BEED1FB7D012B4D
:1015FC0005D1484BDB69474A23F08053D3617B68A4
:10160C00DB69002B00F08180424B5B6803F00C031C
:10161C00082B61D07B68DB69022B46D13F4B002243
:10162C001A60FFF759FB386108E0FFF755FB0246DB
:10163C003B69D31A022B01D9032367E0354B1B6896
:10164C0003F00073002BF0D17B681B6AB3F5803F6D
:10165C0008D1304B5B6823F400327B689B682D49C2
:10166C0013434B602B4B5B6823F474127B68196A31
:10167C007B685B6A0B43274913434B60274B012262
:10168C001A60FFF729FB386108E0FFF725FB0246DB
:10169C003B69D31A022B01D9032337E01D4B1B687E
:1016AC0003F00073002BF0D02FE01C4B00221A60CB
:1016BC00FFF712FB386108E0FFF70EFB02463B69AF
:1016CC00D31A022B01D9032320E0124B1B6803F021
:1016DC000073002BF0D118E07B68DB69012B01D182
:1016EC00012313E00B4B5B68FB60FB6803F4803257
:1016FC007B681B6A9A4206D1FB6803F470127B6804
:10170C005B6A9A4201D0012300E000231846183787
:10171C00BD4680BD00100240007000406000424297
:10172C0080B584B000AF786039607B68002B01D144
:10173C000123D0E06A4B1B6803F007033A689A4216
:10174C0010D9674B1B6823F0070265493B681343AC
:10175C000B60634B1B6803F007033A689A4201D095
:10176C000123B8E07B681B6803F00203002B20D038
:10177C007B681B6803F00403002B05D0594B5B6896
:10178C00584A43F4E06353607B681B6803F008031A
:10179C00002B05D0534B5B68524A43F460535360A3
:1017AC00504B5B6823F0F0027B689B684D491343F8
:1017BC004B607B681B6803F00103002B40D07B68F7
:1017CC005B68012B07D1474B1B6803F40033002BDC
:1017DC0015D101237FE07B685B68022B07D1414B5D
:1017EC001B6803F00073002B09D1012373E03D4B00
:1017FC001B6803F00203002B01D101236BE0394B72
:10180C005B6823F003027B685B68364913434B60CB
:10181C00FFF762FAF8600AE0FFF75EFA0246FB682F
:10182C00D31A41F28832934201D9032353E02D4B52
:10183C005B6803F00C027B685B689B009A42EBD1FF
:10184C00274B1B6803F007033A689A4210D2244BCB
:10185C001B6823F0070222493B6813430B60204BA3
:10186C001B6803F007033A689A4201D0012332E067
:10187C007B681B6803F00403002B08D0194B5B68D2
:10188C0023F4E0627B68DB68164913434B607B688A
:10189C001B6803F00803002B09D0124B5B6823F480
:1018AC0060527B681B69DB000E4913434B6000F0F0
:1018BC0021F802460B4B5B681B0903F00F030A4926
:1018CC00CB5C22FA03F3094A1360094B1B681846D8
:1018DC00FFF7C0F9002318461037BD4680BD00BF86
:1018EC000020024000100240541A00080C00002096
:1018FC001000002080B487B000AF0023FB600023F1
:10190C00BB6000237B6100237B6000233B611E4B8B
:10191C005B68FB60FB6803F00C03042B02D0082B04
:10192C0003D027E0194B3B6127E0FB689B0C03F0CD
:10193C000F03174AD35C7B60FB6803F48033002BE6
:10194C0010D0114B5B685B0C03F00103114AD35CA4
:10195C00BB607B680D4A02FB03F2BB68B2FBF3F37E
:10196C007B6104E07B680C4A02FB03F37B617B69BF
:10197C003B6102E0054B3B6100BF3B6918461C37DD
:10198C00BD4680BC704700BF0010024000127A00B8
:10199C00641A0008741A000800093D0080B485B070
:1019AC0000AF78600A4B1B680A4AA2FB03235B0A50
:1019BC007A6802FB03F3FB6000BFFB685A1EFA60F7
:1019CC00002BF9D100BF00BF1437BD4680BC704757
:1019DC000C000020D34D621070B500260C4D0D4C40
:1019EC00641BA410A64209D100F022F800260A4D6F
:1019FC000A4C641BA410A64205D170BD55F8043BDB
:101A0C0098470136EEE755F8043B98470136F2E764
:101A1C00781A0008781A0008781A00087C1A00084E
:101A2C0003460244934200D1704703F8011BF9E7C7
:101A3C00F8B500BFF8BC08BC9E467047F8B500BFAF
:081A4C00F8BC08BC9E4670477F
:101A5400000000000000000001020304060708095A
:101A640002030405060708090A0B0C0D0E0F1010DB
:041A7400010200006B
:041A78003101000830
:041A7C000D01000850
:101A800005000000020000000300000000127A00C0
:081A900010000000010000003D
:0400000508000BE9FB
:00000001FF
