:020000040800F2
:1000000000280020211C0008B11B0008B71B0008B5
:10001000BD1B0008C31B0008C91B0008000000002E
:10002000000000000000000000000000CF1B0008DE
:10003000DB1B000800000000E71B0008F31B0008A2
:10004000691C0008691C0008691C0008691C00087C
:10005000691C0008691C0008691C0008691C00086C
:10006000691C0008691C0008691C0008691C00085C
:10007000691C0008691C0008691C0008691C00084C
:10008000691C0008691C0008691C0008691C00083C
:10009000691C0008691C0008691C0008691C00082C
:1000A000691C0008691C0008691C0008691C00081C
:1000B000011C0008691C000800000000691C000801
:1000C000691C00080000000000000000691C000816
:1000D00000000000691C0008691C00080000000006
:1000E000691C0008691C0008691C00080000000069
:1000F0000000000000000000000000000000000000
:0C01000000000000000000005FF808F1A3
:10010C0010B5054C237833B9044B13B10448AFF345
:10011C0000800123237010BD74000020000000003B
:10012C009832000808B5034B1BB103490348AFF3E1
:10013C00008008BD00000000780000209832000804
:10014C0080B582B000AF78607B68092B00F28081AB
:10015C0001A252F823F000BF8D010008D501000860
:10016C001D02000865020008AD020008F502000837
:10017C003D03000885030008CD03000815040008A2
:10018C0000220121C64802F06CF800220221C4486A
:10019C0002F067F800220421C14802F062F8002244
:1001AC000821BF4802F05DF800221021BC4802F083
:1001BC0058F800222021BA4802F053F801224021BD
:1001CC00B74802F04EF867E101220121B44802F071
:1001DC0048F800220221B24802F043F80022042120
:1001EC00AF4802F03EF801220821AD4802F039F880
:1001FC0001221021AA4802F034F801222021A8483B
:10020C0002F02FF801224021A54802F02AF843E120
:10021C0000220121A24802F024F800220221A04869
:10022C0002F01FF8012204219D4802F01AF8002266
:10023C0008219B4802F015F800221021984802F082
:10024C0010F801222021964802F00BF800224021E0
:10025C00934802F006F81FE100220121904802F0B9
:10026C0000F8002202218E4801F0FBFF002204213D
:10027C008B4801F0F6FF00220821894801F0F1FFBC
:10028C0001221021864801F0ECFF01222021844834
:10029C0001F0E7FF00224021814801F0E2FFFBE082
:1002AC00012201217E4801F0DCFF002202217C4862
:1002BC0001F0D7FF00220421794801F0D2FF01227E
:1002CC000821774801F0CDFF01221021744801F07C
:1002DC00C8FF00222021724801F0C3FF00224021F8
:1002EC006F4801F0BEFFD7E0002201216C4801F0FD
:1002FC00B8FF012202216A4801F0B3FF0022042159
:10030C00674801F0AEFF00220821654801F0A9FF03
:10031C0001221021624801F0A4FF00222021604834
:10032C0001F09FFF002240215D4801F09AFFB3E0ED
:10033C00002201215A4801F094FF01220221584861
:10034C0001F08FFF00220421554801F08AFF0022A2
:10035C000821534801F085FF00221021504801F07C
:10036C0080FF002220214E4801F07BFF002240211B
:10037C004B4801F076FF8FE000220121484801F044
:10038C0070FF00220221464801F06BFF002204217D
:10039C00434801F066FF01220821414801F061FF4A
:1003AC00012210213E4801F05CFF012220213C4833
:1003BC0001F057FF01224021394801F052FF6BE058
:1003CC0000220121364801F04CFF00220221344862
:1003DC0001F047FF00220421314801F042FF0022C6
:1003EC0008212F4801F03DFF002210212C4801F07C
:1003FC0038FF002220212A4801F033FF002240213F
:10040C00274801F02EFF47E000220121244801F08B
:10041C0028FF00220221224801F023FF00220421A0
:10042C001F4801F01EFF002208211D4801F019FF92
:10043C00012210211A4801F014FF00222021184833
:10044C0001F00FFF00224021154801F00AFF23E0C4
:10045C0001220121124801F004FF0122022110485F
:10046C0001F0FFFE012204210D4801F0FAFE0122E9
:10047C0008210B4801F0F5FE01221021084801F07B
:10048C00F0FE01222021064801F0EBFE0122402162
:10049C00034801F0E6FE00BF00BF0837BD4680BD33
:1004AC00000C014080B582B000AF78607B68092BEE
:1004BC0000F2BE8101A252F823F000BFF104000843
:1004CC004505000899050008ED05000841060008DF
:1004DC0095060008E90600083D070008910700088A
:1004EC00E507000800228021D04801F0BAFE002266
:1004FC004FF48071CD4801F0B4FE00224FF400712E
:10050C00CA4801F0AEFE00224FF48061C74801F0EA
:10051C00A8FE00224FF40061C44801F0A2FE0022A4
:10052C004FF48051C14801F09CFE01224FF4005160
:10053C00BE4801F096FEA5E101228021BB4801F0E6
:10054C0090FE00224FF48071B84801F08AFE002220
:10055C004FF40071B54801F084FE01224FF4806124
:10056C00B24801F07EFE01224FF40061AF4801F069
:10057C0078FE01224FF48051AC4801F072FE01224A
:10058C004FF40051A94801F06CFE7BE10022802160
:10059C00A64801F066FE00224FF48071A34801F0DA
:1005AC0060FE01224FF40071A04801F05AFE0022B7
:1005BC004FF480619D4801F054FE00224FF400611D
:1005CC009A4801F04EFE01224FF48051974801F0F9
:1005DC0048FE00224FF40051944801F042FE51E1D4
:1005EC0000228021914801F03CFE00224FF48071E2
:1005FC008E4801F036FE00224FF400718B4801F05A
:10060C0030FE00224FF48061884801F02AFE01225E
:10061C004FF40061854801F024FE01224FF4805113
:10062C00824801F01EFE00224FF400517F4801F079
:10063C0018FE27E1012280217C4801F012FE0022E5
:10064C004FF48071794801F00CFE00224FF40071D8
:10065C00764801F006FE01224FF48061734801F0E8
:10066C0000FE01224FF40061704801F0FAFD0022F7
:10067C004FF480516D4801F0F4FD00224FF400510D
:10068C006A4801F0EEFDFDE000228021674801F090
:10069C00E8FD01224FF48071644801F0E2FD002274
:1006AC004FF40071614801F0DCFD00224FF48061D1
:1006BC005E4801F0D6FD01224FF400615B4801F069
:1006CC00D0FD00224FF48051584801F0CAFD0022A1
:1006DC004FF40051554801F0C4FDD3E000228021B5
:1006EC00524801F0BEFD01224FF480714F4801F0D9
:1006FC00B8FD00224FF400714C4801F0B2FD00220D
:10070C004FF48061494801F0ACFD00224FF40061C8
:10071C00464801F0A6FD00224FF48051434801F0F9
:10072C00A0FD00224FF40051404801F09AFDA9E0D1
:10073C00002280213D4801F094FD00224FF480718D
:10074C003A4801F08EFD00224FF40071374801F059
:10075C0088FD01224FF48061344801F082FD0122B2
:10076C004FF40061314801F07CFD01224FF48051BF
:10077C002E4801F076FD01224FF400512B4801F078
:10078C0070FD7FE000228021284801F06AFD0022E4
:10079C004FF48071254801F064FD00224FF4007184
:1007AC00224801F05EFD00224FF480611F4801F0E9
:1007BC0058FD00224FF400611C4801F052FD00224C
:1007CC004FF48051194801F04CFD00224FF40051B8
:1007DC00164801F046FD55E000228021134801F037
:1007EC0040FD00224FF48071104801F03AFD0022C8
:1007FC004FF400710D4801F034FD00224FF480617C
:10080C000A4801F02EFD01224FF40061074801F067
:10081C0028FD00224FF48051044801F022FD0022F3
:10082C004FF40051014801F01CFD2BE0000C01407D
:10083C0001228021154801F014FD01224FF4807132
:10084C00124801F00EFD01224FF400710F4801F027
:10085C0008FD01224FF480610C4801F002FD0122D9
:10086C004FF40061094801F0FCFC01224FF4805167
:10087C00064801F0F6FC01224FF40051034801F048
:10088C00F0FC00BF00BF0837BD4680BD000C014026
:10089C0080B582B000AF78607B68002B03D07B689A
:1008AC00012B0BD015E000220221114801F0D9FCDC
:1008BC00012204210E4801F0D4FC15E00122022192
:1008CC000B4801F0CEFC00220421094801F0C9FCC0
:1008DC000AE001220221064801F0C3FC0122042196
:1008EC00034801F0BEFC00BF00BF0837BD4680BD09
:1008FC000008014080B582B000AF78607B68002BA7
:10090C0003D07B68012B0BD015E000220821114885
:10091C0001F0A7FC012210210E4801F0A2FC15E009
:10092C00012208210B4801F09CFC002210210948EF
:10093C0001F097FC0AE001220821064801F091FC25
:10094C0001221021034801F08CFC00BF00BF0837C6
:10095C00BD4680BD0008014080B483B000AF786014
:10096C007B68134A82FB03129210DB17D11A104BCF
:10097C0083FB01239A10CB17D21A13469B00134406
:10098C005B00CA1A0B4B1A607968094B83FB012375
:10099C009A10CB17D21A13469B0013445B00CA1A49
:1009AC00044B5A6000BF0C37BD4680BC704700BF7B
:1009BC0067666666B000002080B483B000AF7860D4
:1009CC007B68134A82FB03129210DB17D11A104B6F
:1009DC0083FB01239A10CB17D21A13469B001344A6
:1009EC005B00CA1A0B4B1A607968094B83FB012315
:1009FC009A10CB17D21A13469B0013445B00CA1AE9
:100A0C00044B5A6000BF0C37BD4680BC704700BF1A
:100A1C0067666666A800002080B483B000AF78607B
:100A2C00094A7B6852F82330012B06D1064A7B68B1
:100A3C00002142F82310012300E0002318460C3754
:100A4C00BD4680BC704700BF9000002080B483B0CE
:100A5C0000AF7860044A7B68012142F8231000BF84
:100A6C000C37BD4680BC70479000002080B582B02A
:100A7C0000AF7860374A7B6852F8232036497B6890
:100A8C0041F82320354A7B6852F8232031497B6892
:100A9C0041F82320324A7B6852F8232031497B6885
:100AAC0031F813301946104601F0C4FB03461946C1
:100ABC002A4A7B6842F82310274A7B6852F8232085
:100ACC0024497B6851F823309A423ED1214A7B68F5
:100ADC0052F8232021497B6851F823309A4234D1B3
:100AEC00214A7B6852F823201C497B6851F823303B
:100AFC009A4216D0194A7B6852F823201A497B680F
:100B0C0041F82320154A7B6852F82330002B1CD166
:100B1C007868FFF79BFF154A7B680A2142F823107F
:100B2C0013E0124A7B6852F823305A1E0F497B6837
:100B3C0041F823200D4A7B6852F82330002B04DC4B
:100B4C00094A7B68012142F8231000BF0837BD46D3
:100B5C0080BD00BF20000020140000202C000020CD
:100B6C00000000200C000020380000204400002071
:100B7C0080B500AF0020FFF779FF0120FFF776FF6B
:100B8C000220FFF773FF00BF80BD000080B500AFEF
:100B9C00074B1B68002B09DD054B1B68013B044A06
:100BAC001360034B1B681846FFF706FF00BF80BDA0
:100BBC00BC00002080B500AF074B1B68002B09DD83
:100BCC00054B1B68013B044A1360034B1B6818461A
:100BDC00FFF7C2FE00BF80BDC000002080B500AF93
:100BEC000C4B1B680C4A52F823301846FFF7A8FA36
:100BFC00084B1B681846FFF74BFE064B1B6801336E
:100C0C00002B03F00103B8BF5B42024A136000BF24
:100C1C0080BD00BFA0000020A800002080B500AF60
:100C2C000C4B1B680C4A52F823301846FFF73AFC61
:100C3C00084B1B681846FFF75DFE064B1B6801331B
:100C4C00002B03F00103B8BF5B42024A136000BFE4
:100C5C0080BD00BFA4000020B000002080B483B091
:100C6C0000AF7860034A7B68136000BF0C37BD4649
:100C7C0080BC70475800002080B500AF0D4B1B683E
:100C8C000D4A52F823301846FFF75AFA094B1B68E5
:100C9C001846FFF7FDFD074B1B680133054A13602F
:100CAC00044B1B68012B02DD024B00221A6000BFB3
:100CBC0080BD00BFA0000020A800002080B500AFC0
:100CCC000D4B1B680D4A52F823301846FFF7EAFB10
:100CDC00094B1B681846FFF70DFE074B1B680133C9
:100CEC00054A1360044B1B68012B02DD024B0022EA
:100CFC001A6000BF80BD00BFA4000020B00000201F
:100D0C0080B582B000AF78603960164B00221A6053
:100D1C00144A7B6853603968134B83FB01239A1088
:100D2C00CB17D21A13469B0013445B00CA1A0F4B05
:100D3C005A603B680C4A82FB03129210DB17D31AE1
:100D4C000A4A13604FF496720021094800F016FE0F
:100D5C004FF496720021074800F010FE00BF0837D0
:100D6C00BD4680BDA800002067666666B000002006
:100D7C00850C0008C90C000880B500AFA64B1B6899
:100D8C000A3B0A2B00F23B8201A252F823F000BF6F
:100D9C00C90D0008290E0008B10F00085D100008ED
:100DAC00D7100008611100088F110008DD11000830
:100DBC0051110008CD110008BD11000800F052FAC5
:100DCC0000F068FA954B00221A60944B00225A608E
:100DDC00934B00225A60924B00221A604FF4967289
:100DEC000021904800F0CAFD4FF4967200218E4805
:100DFC0000F0C4FD0A2200218C4800F0BFFD002049
:100E0C00FFF70AFE0346012B40F0FB81884B1B6861
:100E1C00884A13600B20FFF721FFF2E1814800F0B4
:100E2C0047FE814800F044FE804800F041FE0A2253
:100E3C0000217E4800F0A2FD4FF496720021794803
:100E4C0000F09CFD4FF496720021774800F096FD5F
:100E5C00FFF79CFEFFF7C2FE774B1B68013B032B91
:100E6C0043D801A252F823F0850E0008990E000811
:100E7C00B50E0008D10E000800F0DCF96C4B1B68B5
:100E8C006E4A13606C4B02221A602EE000F032FAAC
:100E9C006A4B1B68002B23D1694B1B68674A136094
:100EAC00654B03221A601BE000F03CFA634B1B6895
:100EBC00002B17D1634B1B68604A13605E4B0422F6
:100ECC001A600FE000F046FA5C4B1B68002B0BD14C
:100EDC00574B1B68594A1360574B02221A6003E0A8
:100EEC0000BF02E000BF00E000BFFFF763FEFFF7AA
:100EFC0095FE554B1B68013B032B44D801A252F8BD
:100F0C0023F000BF210F0008350F0008510F000817
:100F1C006D0F000800F0D6F9494B1B684B4A136063
:100F2C00494B03221A602EE000F02CFA474B1B6849
:100F3C00002B23D1424B1B68444A1360424B0322C3
:100F4C001A601BE000F036FA404B1B68002B17D1DF
:100F5C003C4B1B683D4A13603B4B04221A600FE06C
:100F6C0000F040FA394B1B68002B0BD1304B1B683F
:100F7C00364A1360344B02221A6003E000BF02E0D1
:100F8C0000BF00E000BF0020FFF746FD0346012B29
:100F9C0040F03981264B1B68264A13601E4B0C22ED
:100FAC001A6030E1214800F083FD1E4800F080FDFE
:100FBC001D4800F07DFD0A2200211C4800F0DEFCDB
:100FCC001C4B1B6819460220FFF79AFE00F022FA10
:100FDC000020FFF721FD0346012B06D1194B1B689E
:100FEC00144A13600D20FFF739FE0120FFF714FDA2
:100FFC000346012B04D10F4B1B6801330D4A1360C0
:10100C000220FFF709FD0346012B40F0FE80122061
:10101C00FFF724FEF9E000BF58000020A8000020D4
:10102C00B0000020850C0008C90C00087D0B0008DE
:10103C005C0000209C00002050000020BC00002020
:10104C00640000206000002054000020C00000203C
:10105C00704800F02DFD704800F02AFD6F4800F03C
:10106C0027FD0A2200216D4800F088FC6C4B1B68A0
:10107C0019460320FFF744FE0A220021674800F0BE
:10108C007DFC0020FFF7C8FC0346012B06D1654B05
:10109C001B68634A13600E20FFF7E0FD0120FFF789
:1010AC00BBFC0346012B04D15D4B1B6801335C4A2E
:1010BC0013600220FFF7B0FC0346012B02D1142071
:1010CC00FFF7CCFD00F0CEF9A2E0544800F0F0FCA4
:1010DC00504800F0EDFC504800F0EAFC00F0EAF952
:1010EC000A2200214D4800F049FC4D4B1B68194663
:1010FC000420FFF705FE0A220021484800F03EFCC0
:10110C000020FFF789FC0346012B06D1464B1B68D8
:10111C00434A13600A20FFF7A1FD0120FFF77CFC76
:10112C000346012B04D13E4B1B6801333C4A136030
:10113C000220FFF771FC0346012B68D11320FFF747
:10114C008DFD64E0364B1B68374A13600C20FFF7AB
:10115C0085FD5DE0324B1B680133314A1360304B27
:10116C001A68324B83FB02135911D317CB1A642123
:10117C0001FB03F3D31A2A4A13600C20FFF76EFD10
:10118C0046E0274B1B680133254A1360244B1A6831
:10119C00264B83FB02135911D317CB1A642101FB85
:1011AC0003F3D31A1E4A13600D20FFF757FD2FE0EF
:1011BC001B4B1B681E4A13600D20FFF74FFD27E0E9
:1011CC00174B1B68174A13600E20FFF747FD1FE0F3
:1011DC00134B1B680133124A1360114B1A68134BE3
:1011EC0083FB02135911D317CB1A642101FB03F3B0
:1011FC00D31A0B4A13600E20FFF730FD08E000BF36
:10120C0006E000BF04E000BF02E000BF00E000BF4A
:10121C0000BF80BD850C0008C90C00087D0B0008C0
:10122C009C000020640000205C0000201F85EB5116
:10123C006000002080B500AF01224FF480610848A7
:10124C0001F00FF801224FF40061054801F009F894
:10125C0001224FF48051024801F003F800BF80BD19
:10126C000008014080B500AF00224FF480610848AF
:10127C0000F0F7FF00224FF40061054800F0F1FF89
:10128C0000224FF48051024800F0EBFF00BF80BDFC
:10129C000008014080B500AF00224FF4005108480F
:1012AC0000F0DFFF00224FF48041054800F0D9FF29
:1012BC0000224FF40041024800F0D3FF00BF80BD74
:1012CC000008014080B500AF01224FF400510848DE
:1012DC0000F0C7FF01224FF48041054800F0C1FF28
:1012EC0001224FF40041024800F0BBFF00BF80BD5B
:1012FC000008014080B500AF00224FF4806108481F
:10130C0000F0AFFF01224FF40061054800F0A9FF87
:10131C0001224FF48051024800F0A3FF00BF80BDB2
:10132C000008014080B500AF01224FF480610848ED
:10133C0000F097FF00224FF40061054800F091FF88
:10134C0001224FF48051024800F08BFF00BF80BD9A
:10135C000008014080B500AF01224FF480610848BD
:10136C0000F07FFF01224FF40061054800F079FF87
:10137C0000224FF48051024800F073FF00BF80BD83
:10138C000008014080B500AF00224FF4005108481E
:10139C0000F067FF01224FF48041054800F061FF27
:1013AC0001224FF40041024800F05BFF00BF80BDFA
:1013BC000008014080B500AF01224FF400510848ED
:1013CC0000F04FFF00224FF48041054800F049FF28
:1013DC0001224FF40041024800F043FF00BF80BDE2
:1013EC000008014080B500AF01224FF400510848BD
:1013FC0000F037FF01224FF48041054800F031FF27
:10140C0000224FF40041024800F02BFF00BF80BDCA
:10141C000008014080B500AF4FF40051104800F0B7
:10142C0038FF4FF480610E4800F033FF01224FF477
:10143C0000610B4800F015FF01224FF48041084871
:10144C0000F00FFF01224FF48051054800F009FF16
:10145C0001224FF40041024800F003FF00BF80BDA1
:10146C000008014080B500AF4FF40041104800F077
:10147C0010FF4FF480510E4800F00BFF01224FF487
:10148C0080610B4800F0EDFE01224FF4005108483A
:10149C0000F0E7FE01224FF40061054800F0E1FE88
:1014AC0001224FF48041024800F0DBFE00BF80BDFA
:1014BC000008014080B500AF4FF48041104800F0A7
:1014CC00E8FE4FF400610E4800F0E3FE01224FF4F9
:1014DC0080510B4800F0C5FE01224FF40041084832
:1014EC0000F0BFFE01224FF48061054800F0B9FE08
:1014FC0001224FF40051024800F0B3FE00BF80BD42
:10150C000008014080B500AF00F0AAFB00F016F80F
:10151C0000F050F800F09AF8064801F0FFFA00F0DD
:10152C0009F94FF47A720021034800F027FA00F011
:10153C00C1F9FCE7C4000020850D000880B590B00F
:10154C0000AF07F1180328220021184601F096FE7F
:10155C003B1D00221A605A609A60DA601A610223FD
:10156C00BB610123BB621023FB6200237B6307F189
:10157C001803184600F0A6FE0346002B01D000F01D
:10158C00D3F80F237B600023BB600023FB60002398
:10159C003B6100237B613B1D0021184601F012F9D1
:1015AC000346002B01D000F0BFF800BF4037BD460A
:1015BC0080BD000080B586B000AF07F108030022A3
:1015CC001A605A609A60DA603B4600221A605A60D0
:1015DC001D4B4FF080421A601B4B41F63F725A6014
:1015EC00194B00229A60184B0922DA60164B002224
:1015FC001A61154B00229A61134801F03FFA034619
:10160C00002B01D000F090F84FF48053BB6007F131
:10161C00080319460C4801F0BDFB0346002B01D012
:10162C0000F082F800233B6000237B603B461946A8
:10163C00054801F095FD0346002B01D000F074F82D
:10164C0000BF1837BD4680BDC400002080B586B0F1
:10165C0000AF07F1080300221A605A609A60DA6042
:10166C00294B9B69284A43F004039361264B9B69E1
:10167C0003F004037B607B68234B9B69224A43F095
:10168C0008039361204B9B6903F008033B603B68A4
:10169C0000224FF61E411D4800F0E3FD002243F6E8
:1016AC00FF711B4800F0DDFD4FF61E43BB600123AC
:1016BC00FB6000233B6102237B6107F108031946A1
:1016CC00124800F03DFC4FF4E073BB600023FB605C
:1016DC0001233B6107F1080319460C4800F030FC6C
:1016EC0043F6FF73BB600123FB6000233B610223C5
:1016FC007B6107F108031946054800F021FC00BF87
:10170C001837BD4680BD00BF0010024000080140E4
:10171C00000C014080B582B000AF786000F050F84A
:10172C0000BF0837BD4680BD80B400AF72B600BFA5
:10173C00FEE7000080B483B000AF0023FB7133E000
:10174C00FA791E4913469B0013449B000B4400225C
:10175C001A60FA79F979194813469B0013449B00D7
:10176C00034410331960FA79144913469B0013444F
:10177C009B000B44043300221A60FA790F4913467C
:10178C009B0013449B000B44083300221A60FA7927
:10179C000A4913469B0013449B000B440C33002254
:1017AC001A70FB790133FB71FB79132BC8D900BF7D
:1017BC0000BF0C37BD4680BC704700BF0C01002039
:1017CC0080B483B000AF0023FB7167E0FA7938492D
:1017DC0013469B0013449B000B441B68002B5AD0F0
:1017EC00FA79334913469B0013449B000B44043392
:1017FC001B68002B12D0FA792D4913469B00134419
:10180C009B000B4404331B68FA79591E2848134675
:10181C009B0013449B00034404331960FA79244958
:10182C0013469B0013449B000B4404331B68002B92
:10183C0031D1FA791E4913469B0013449B000B448B
:10184C000C331B78FA790133D8B2194913469B0033
:10185C0013449B000B440C3302461A70FA7914495A
:10186C0013469B0013449B000B4408331B68002B4E
:10187C0011D0F979FA790E480B469B000B449B006A
:10188C000344083319680A4813469B0013449B0011
:10189C00034404331960FB790133FB71FB79132B7F
:1018AC0094D900BF00BF0C37BD4680BC704700BF49
:1018BC000C01002080B582B000AF0023FB7153E017
:1018CC00FA792D4913469B0013449B000B440C33AF
:1018DC001B78002B45D0FA79274913469B001344FB
:1018EC009B000B441B689847FA79234913469B00CD
:1018FC0013449B000B440C331B78FA79013BD8B290
:10190C001D4913469B0013449B000B440C330246A9
:10191C001A70FA79184913469B0013449B000B4428
:10192C0008331B68002B1CD1FA79134913469B0012
:10193C0013449B000B4400221A60FA790E4913469B
:10194C009B0013449B000B44043300221A60FA7969
:10195C00094913469B0013449B000B440C33002293
:10196C001A70FB790133FB71FB79132BA8D900BFDB
:10197C0000BF0837BD4680BD0C01002080B487B085
:10198C0000AFF860B9607A600023FB7502E0FB7D64
:10199C000133FB75FB7D132B09D8FA7D20491346C7
:1019AC009B0013449B000B441B68002BEFD1FB7D69
:1019BC00142B04D11B4B15221A7014232BE0FA7D27
:1019CC00174913469B0013449B000B44FA681A609A
:1019DC00FA7D134913469B0013449B000B440433BC
:1019EC00BA681A60FA7D7B680F49A1FB0313D9080A
:1019FC000B4813469B0013449B00034408331960A7
:101A0C00FA7D074913469B0013449B000B440C338F
:101A1C0000221A70FB7D18461C37BD4680BC7047EF
:101A2C000C010020B8000020CDCCCCCC80B483B00D
:101A3C0000AF78607B68132B09D81C497A68134671
:101A4C009B0013449B000B441B68002B01D100230B
:101A5C0027E016497A6813469B0013449B000B44FD
:101A6C0000221A6011497A6813469B0013449B00AC
:101A7C000B44043300221A600C497A6813469B000D
:101A8C0013449B000B44083300221A6007497A6800
:101A9C0013469B0013449B000B440C3300221A701A
:101AAC00012318460C37BD4680BC70470C01002042
:101ABC0080B584B000AF78600023FB6012E00D4964
:101ACC00FA6813469B0013449B000B441B687A680E
:101ADC009A4204D1F868FFF7A9FF034606E0FB68B9
:101AEC000133FB60FB68132BE9D900231846103730
:101AFC00BD4680BD0C01002080B485B000AF154BF5
:101B0C009B69144A43F001039361124B9B6903F0E8
:101B1C000103BB60BB680F4BDB690E4A43F080537B
:101B2C00D3610C4BDB6903F080537B607B680A4B01
:101B3C005B68FB60FB6823F0E063FB60FB6843F0D1
:101B4C008063FB60044AFB68536000BF1437BD46DA
:101B5C0080BC7047001002400000014080B584B08A
:101B6C0000AF78607B681B68B3F1804F13D10C4BCE
:101B7C00DB690B4A43F00103D361094BDB6903F0CA
:101B8C000103FB60FB68002200211C2000F0A1F97E
:101B9C001C2000F0BAF900BF1037BD4680BD00BF55
:101BAC000010024080B400AFFEE780B400AFFEE747
:101BBC0080B400AFFEE780B400AFFEE780B400AFA6
:101BCC00FEE780B400AF00BFBD4680BC704780B458
:101BDC0000AF00BFBD4680BC704780B400AF00BFF3
:101BEC00BD4680BC704780B500AF00F07FF800BFE9
:101BFC0080BD000080B500AF024800F0DBFF00BFE5
:101C0C0080BD00BFC400002080B400AF00BFBD4643
:101C1C0080BC7047FFF7F8FF0B480C490C4A0023B7
:101C2C0002E0D458C4500433C4188C42F9D3094A86
:101C3C00094C002301E013600432A242FBD301F0F3
:101C4C00F9FAFFF75FFC70470000002074000020D9
:101C5C00DC32000874000020A0020020FEE7000027
:101C6C0080B500AF084B1B68074A43F010031360A4
:101C7C00032000F023F90F2000F008F8FFF73CFFD9
:101C8C000023184680BD00BF0020024080B582B002
:101C9C0000AF7860124B1A68124B1B7819464FF440
:101CAC007A73B3FBF1F3B2FBF3F3184600F03BF994
:101CBC000346002B01D001230EE07B680F2B0AD8C2
:101CCC00002279684FF0FF3000F003F9064A7B6878
:101CDC001360002300E0012318460837BD4680BD81
:101CEC0068000020700000206C00002080B400AF61
:101CFC00054B1B781A46054B1B681344034A1360AB
:101D0C0000BFBD4680BC7047700000209C020020C4
:101D1C0080B400AF024B1B681846BD4680BC7047B0
:101D2C009C02002080B485B000AF78607B6803F023
:101D3C000703FB600C4BDB68BB60BA684FF6FF0314
:101D4C001340BB60FB681A02BB68134343F0BF63CC
:101D5C0043F40033BB60044ABB68D36000BF143744
:101D6C00BD4680BC704700BF00ED00E080B400AF02
:101D7C00044BDB681B0A03F007031846BD4680BC06
:101D8C00704700BF00ED00E080B483B000AF0346A5
:101D9C00FB7197F90730002B0BDBFB7903F01F026B
:101DAC00064997F907305B09012000FA02F241F865
:101DBC00232000BF0C37BD4680BC704700E100E01B
:101DCC0080B483B000AF03463960FB7197F90730DC
:101DDC00002B0ADB3B68DAB20C4997F90730120189
:101DEC00D2B20B4483F800230AE03B68DAB208490C
:101DFC00FB7903F00F03043B1201D2B20B441A76A9
:101E0C0000BF0C37BD4680BC704700BF00E100E04E
:101E1C0000ED00E080B489B000AFF860B9607A6082
:101E2C00FB6803F00703FB61FB69C3F10703042B99
:101E3C0028BF0423BB61FB690433062B02D9FB6961
:101E4C00033B00E000237B614FF0FF32BB6902FAD9
:101E5C0003F3DA43BB681A407B699A404FF0FF31B9
:101E6C007B6901FA03F3D9437B680B401343184693
:101E7C002437BD4680BC704780B582B000AF786017
:101E8C007B68013BB3F1807F01D301230FE00A4A49
:101E9C007B68013B53600F214FF0FF30FFF790FF41
:101EAC00054B00229A60044B07221A600023184647
:101EBC000837BD4680BD00BF10E000E080B582B0A1
:101ECC0000AF78607868FFF72DFF00BF0837BD467C
:101EDC0080BD80B586B000AF0346B9607A60FB73F5
:101EEC0000237B61FFF742FF78617A68B9687869F3
:101EFC00FFF790FF024697F90F3011461846FFF78F
:101F0C005FFF00BF1837BD4680BD80B582B000AF03
:101F1C000346FB7197F907301846FFF735FF00BFF2
:101F2C000837BD4680BD80B582B000AF7860786858
:101F3C00FFF7A2FF034618460837BD4680BD0000D8
:101F4C0080B48BB000AF7860396000237B620023D3
:101F5C003B6248E101227B6A02FA03F3FB613B68B6
:101F6C001B68FA691340BB61BA69FB699A4240F07D
:101F7C0037813B685B68A34A93425ED0A14A934287
:101F8C0075D8A14A934258D09F4A93426FD89F4A22
:101F9C00934252D09D4A934269D89D4A93424CD069
:101FAC009B4A934263D89B4A934246D0994A9342A8
:101FBC005DD8122B2AD8122B59D801A252F823F033
:101FCC004720000821200008332000087520000855
:101FDC007B2000087B2000087B2000087B20000869
:101FEC007B2000087B2000087B2000087B20000859
:101FFC007B2000087B2000087B2000087B20000849
:10200C007B200008292000083D200008824A9342CA
:10201C0013D02CE03B68DB683B6229E03B68DB6853
:10202C0004333B6224E03B68DB6808333B621FE00F
:10203C003B68DB680C333B621AE03B689B68002B07
:10204C0002D104233B6213E03B689B68012B05D152
:10205C0008233B627B68FA691A6109E008233B623A
:10206C007B68FA695A6103E000233B6200E000BF21
:10207C00BB69FF2B01D87B6801E07B6804337B6173
:10208C00BB69FF2B02D87B6A9B0002E07B6A083B92
:10209C009B003B617B691A680F213B6901FA03F3D2
:1020AC00DB431A40396A3B6901FA03F31A437B6933
:1020BC001A603B685B6803F08053002B00F0908043
:1020CC00564B9B69554A43F001039361534B9B69F3
:1020DC0003F00103BB60BB68514A7B6A9B08023367
:1020EC0052F82330FB607B6A03F003039B000F2242
:1020FC0002FA03F3DB43FA681340FB607B68494A3E
:10210C0093420DD07B68484A934207D07B68474A7C
:10211C00934201D1022304E0032302E0012300E0F7
:10212C0000237A6A02F0030292009340FA68134388
:10213C00FB603B497B6A9B080233FA6841F8232019
:10214C003B685B6803F48013002B06D0384B9A680D
:10215C003749BB6913438B6006E0354B9A68BB6902
:10216C00DB43334913408B603B685B6803F400131B
:10217C00002B06D02E4BDA682D49BB691343CB607C
:10218C0006E02B4BDA68BB69DB4329491340CB6073
:10219C003B685B6803F40033002B06D0244B5A6871
:1021AC002349BB6913434B6006E0214B5A68BB695A
:1021BC00DB431F4913404B603B685B6803F480337F
:1021CC00002B06D01A4B1A681949BB6913430B60D4
:1021DC0006E0174B1A68BB69DB43154913400B60CB
:1021EC007B6A01337B623B681A687B6A22FA03F3D1
:1021FC00002B7FF4AFAE00BF00BF2C37BD4680BCB8
:10220C00704700BF00003210000031100000221097
:10221C0000002110000012100000111000100240EC
:10222C000000014000080140000C0140001001407A
:10223C000004014080B485B000AF78600B467B8011
:10224C007B689A687B881340002B02D00123FB73B8
:10225C0001E00023FB73FB7B18461437BD4680BCA2
:10226C00704780B483B000AF78600B467B80134618
:10227C007B707B78002B03D07A887B681A6103E033
:10228C007B881A047B681A6100BF0C37BD4680BC82
:10229C00704780B485B000AF78600B467B807B685C
:1022AC00DB68FB607A88FB6813401A04FB68D9432F
:1022BC007B880B401A437B681A6100BF1437BD46FC
:1022CC0080BC704780B586B000AF78607B68002B0F
:1022DC0001D101236CE27B681B6803F00103002B26
:1022EC0000F08780924B5B6803F00C03042B0CD03E
:1022FC008F4B5B6803F00C03082B12D18C4B5B6883
:10230C0003F48033B3F5803F0BD1894B1B6803F486
:10231C000033002B6CD07B685B68002B68D10123E9
:10232C0046E27B685B68B3F5803F06D1804B1B6847
:10233C007F4A43F4803313602EE07B685B68002B8C
:10234C000CD17B4B1B687A4A23F480331360784B97
:10235C001B68774A23F4802313601DE07B685B685D
:10236C00B3F5A02F0CD1724B1B68714A43F4802338
:10237C0013606F4B1B686E4A43F4803313600BE0A1
:10238C006B4B1B686A4A23F480331360684B1B68E1
:10239C00674A23F4802313607B685B68002B13D09F
:1023AC00FFF7B6FC386108E0FFF7B2FC02463B6968
:1023BC00D31A642B01D90323FAE15D4B1B6803F498
:1023CC000033002BF0D014E0FFF7A2FC386108E0DA
:1023DC00FFF79EFC02463B69D31A642B01D90323F9
:1023EC00E6E1534B1B6803F40033002BF0D100E003
:1023FC0000BF7B681B6803F00203002B63D04C4BBF
:10240C005B6803F00C03002B0BD0494B5B6803F0AB
:10241C000C03082B1CD1464B5B6803F48033002B58
:10242C0016D1434B1B6803F00203002B05D07B68CD
:10243C001B69012B01D00123BAE13D4B1B6823F032
:10244C00F8027B685B69DB00394913430B603AE0A7
:10245C007B681B69002B20D0364B01221A60FFF7DA
:10246C0057FC386108E0FFF753FC02463B69D31A6E
:10247C00022B01D903239BE12D4B1B6803F00203B4
:10248C00002BF0D02A4B1B6823F0F8027B685B69A9
:10249C00DB00274913430B6015E0264B00221A6022
:1024AC00FFF736FC386108E0FFF732FC02463B6967
:1024BC00D31A022B01D903237AE11D4B1B6803F0BD
:1024CC000203002BF0D17B681B6803F00803002B80
:1024DC003AD07B689B69002B19D0174B01221A60EC
:1024EC00FFF716FC386108E0FFF712FC02463B6967
:1024FC00D31A022B01D903235AE10D4B5B6A03F06B
:10250C000203002BF0D0012000F09AFA1CE00A4BD9
:10251C0000221A60FFF7FCFB38610FE0FFF7F8FBB5
:10252C0002463B69D31A022B08D9032340E100BFB2
:10253C000010024000004242800442429E4B5B6A03
:10254C0003F00203002BE9D17B681B6803F0040342
:10255C00002B00F0A6800023FB75974BDB6903F082
:10256C008053002B0DD1944BDB69934A43F080537D
:10257C00D361914BDB6903F08053BB60BB680123D3
:10258C00FB758E4B1B6803F48073002B18D18B4B9F
:10259C001B688A4A43F480731360FFF7B9FB3861F8
:1025AC0008E0FFF7B5FB02463B69D31A642B01D94F
:1025BC000323FDE0814B1B6803F48073002BF0D0E8
:1025CC007B68DB68012B06D17B4B1B6A7A4A43F094
:1025DC00010313622DE07B68DB68002B0CD1764B7A
:1025EC001B6A754A23F001031362734B1B6A724A10
:1025FC0023F0040313621CE07B68DB68052B0CD111
:10260C006D4B1B6A6C4A43F0040313626A4B1B6AE2
:10261C00694A43F0010313620BE0674B1B6A664A7D
:10262C0023F001031362644B1B6A634A23F0040317
:10263C0013627B68DB68002B15D0FFF769FB3861F0
:10264C000AE0FFF765FB02463B69D31A41F2883278
:10265C00934201D90323ABE0574B1B6A03F00203EF
:10266C00002BEED014E0FFF753FB38610AE0FFF7C4
:10267C004FFB02463B69D31A41F28832934201D98F
:10268C00032395E04C4B1B6A03F00203002BEED1A5
:10269C00FB7D012B05D1484BDB69474A23F0805366
:1026AC00D3617B68DB69002B00F08180424B5B6857
:1026BC0003F00C03082B61D07B68DB69022B46D13D
:1026CC003F4B00221A60FFF723FB386108E0FFF74D
:1026DC001FFB02463B69D31A022B01D9032367E087
:1026EC00354B1B6803F00073002BF0D17B681B6A21
:1026FC00B3F5803F08D1304B5B6823F400327B6824
:10270C009B682D4913434B602B4B5B6823F474126D
:10271C007B68196A7B685B6A0B43274913434B60E0
:10272C00274B01221A60FFF7F3FA386108E0FFF734
:10273C00EFFA02463B69D31A022B01D9032337E087
:10274C001D4B1B6803F00073002BF0D02FE01C4BCB
:10275C0000221A60FFF7DCFA386108E0FFF7D8FABC
:10276C0002463B69D31A022B01D9032320E0124BFA
:10277C001B6803F00073002BF0D118E07B68DB6959
:10278C00012B01D1012313E00B4B5B68FB60FB6851
:10279C0003F480327B681B6A9A4206D1FB6803F40F
:1027AC0070127B685B6A9A4201D0012300E000231F
:1027BC0018461837BD4680BD00100240007000401E
:1027CC006000424280B584B000AF786039607B68AD
:1027DC00002B01D10123D0E06A4B1B6803F00703E7
:1027EC003A689A4210D9674B1B6823F00702654977
:1027FC003B6813430B60634B1B6803F007033A6899
:10280C009A4201D00123B8E07B681B6803F00203F5
:10281C00002B20D07B681B6803F00403002B05D031
:10282C00594B5B68584A43F4E06353607B681B6800
:10283C0003F00803002B05D0534B5B68524A43F45A
:10284C0060535360504B5B6823F0F0027B689B68CD
:10285C004D4913434B607B681B6803F00103002B4D
:10286C0040D07B685B68012B07D1474B1B6803F496
:10287C000033002B15D101237FE07B685B68022BB2
:10288C0007D1414B1B6803F00073002B09D10123C6
:10289C0073E03D4B1B6803F00203002B01D10123B5
:1028AC006BE0394B5B6823F003027B685B6836494D
:1028BC0013434B60FFF72CFAF8600AE0FFF728FA95
:1028CC000246FB68D31A41F28832934201D90323A2
:1028DC0053E02D4B5B6803F00C027B685B689B003C
:1028EC009A42EBD1274B1B6803F007033A689A42D4
:1028FC0010D2244B1B6823F0070222493B68134378
:10290C000B60204B1B6803F007033A689A4201D016
:10291C00012332E07B681B6803F00403002B08D012
:10292C00194B5B6823F4E0627B68DB681649134340
:10293C004B607B681B6803F00803002B09D0124B1B
:10294C005B6823F460527B681B69DB000E49134300
:10295C004B6000F021F802460B4B5B681B0903F03F
:10296C000F030A49CB5C22FA03F3094A1360094BA3
:10297C001B681846FFF78AF9002318461037BD4626
:10298C0080BD00BF0020024000100240B0320008A1
:10299C00680000206C00002080B487B000AF0023DA
:1029AC00FB600023BB6000237B6100237B60002362
:1029BC003B611E4B5B68FB60FB6803F00C03042B54
:1029CC0002D0082B03D027E0194B3B6127E0FB68B2
:1029DC009B0C03F00F03174AD35C7B60FB6803F47A
:1029EC008033002B10D0114B5B685B0C03F00103A0
:1029FC00114AD35CBB607B680D4A02FB03F2BB68D7
:102A0C00B2FBF3F37B6104E07B680C4A02FB03F33B
:102A1C007B617B693B6102E0054B3B6100BF3B691D
:102A2C0018461C37BD4680BC704700BF00100240E2
:102A3C0000127A00C0320008D032000800093D00B4
:102A4C0080B485B000AF78600A4B1B680A4AA2FBC1
:102A5C0003235B0A7A6802FB03F3FB6000BFFB688D
:102A6C005A1EFA60002BF9D100BF00BF1437BD46C7
:102A7C0080BC704768000020D34D621080B582B0D6
:102A8C0000AF78607B68002B01D1012341E07B68AB
:102A9C0093F83D30DBB2002B06D17B68002283F823
:102AAC003C207868FFF75AF87B68022283F83D20B7
:102ABC007B681A687B6804331946104600F056FA96
:102ACC007B68012283F846207B68012283F83E2034
:102ADC007B68012283F83F207B68012283F8402029
:102AEC007B68012283F841207B68012283F8422015
:102AFC007B68012283F843207B68012283F8442001
:102B0C007B68012283F845207B68012283F83D20F5
:102B1C00002318460837BD4680BD000080B485B040
:102B2C0000AF78607B6893F83D30DBB2012B01D0AD
:102B3C00012335E07B68022283F83D207B681B680B
:102B4C00DA687B681B6842F00102DA607B681B68FC
:102B5C00164A934209D07B681B68B3F1804F04D0AE
:102B6C007B681B68124A934211D17B681B689B6877
:102B7C0003F00703FB60FB68062B10D07B681B6817
:102B8C001A687B681B6842F001021A6007E07B68D8
:102B9C001B681A687B681B6842F001021A600023EC
:102BAC0018461437BD4680BC704700BF002C01404E
:102BBC000004004080B584B000AF78607B681B686F
:102BCC00DB68FB607B681B681B69BB60BB6803F040
:102BDC000203002B20D0FB6803F00203002B1BD058
:102BEC007B681B686FF002021A617B6801221A77FE
:102BFC007B681B689B6903F00303002B03D0786888
:102C0C0000F098F905E0786800F08BF9786800F02E
:102C1C009AF97B6800221A77BB6803F00403002B37
:102C2C0020D0FB6803F00403002B1BD07B681B68CF
:102C3C006FF004021A617B6802221A777B681B68AA
:102C4C009B6903F44073002B03D0786800F072F991
:102C5C0005E0786800F065F9786800F074F97B6835
:102C6C0000221A77BB6803F00803002B20D0FB6806
:102C7C0003F00803002B1BD07B681B686FF0080265
:102C8C001A617B6804221A777B681B68DB6903F086
:102C9C000303002B03D0786800F04CF905E078684A
:102CAC0000F03FF9786800F04EF97B6800221A7743
:102CBC00BB6803F01003002B20D0FB6803F010035B
:102CCC00002B1BD07B681B686FF010021A617B68AD
:102CDC0008221A777B681B68DB6903F44073002BAE
:102CEC0003D0786800F026F905E0786800F019F94F
:102CFC00786800F028F97B6800221A77BB6803F02B
:102D0C000103002B0CD0FB6803F00103002B07D050
:102D1C007B681B686FF001021A617868FEF7FAFC99
:102D2C00BB6803F08003002B0CD0FB6803F080031E
:102D3C00002B07D07B681B686FF080021A617868E3
:102D4C0000F06FFABB6803F04003002B0CD0FB685B
:102D5C0003F04003002B07D07B681B686FF0400228
:102D6C001A61786800F0F8F8BB6803F02003002BB8
:102D7C000CD0FB6803F02003002B07D07B681B688A
:102D8C006FF020021A61786800F042FA00BF103729
:102D9C00BD4680BD80B584B000AF7860396000233B
:102DAC00FB737B6893F83C30012B01D10223B4E018
:102DBC007B68012283F83C207B68022283F83D204B
:102DCC007B681B689B68BB60BB6823F07703BB60A8
:102DDC00BB6823F47F43BB607B681B68BA689A604E
:102DEC003B681B68B3F5005F3ED0B3F5005F00F2A3
:102DFC008780B3F5805F00F08680B3F5805F7FD865
:102E0C00702B1AD0702B7BD8602B50D0602B77D8BE
:102E1C00502B3CD0502B73D8402B58D0402B6FD814
:102E2C00302B64D0302B6BD8202B60D0202B67D864
:102E3C00002B5CD0102B5AD062E07B6818683B6882
:102E4C0099683B685A683B68DB6800F06AF97B68F4
:102E5C001B689B68BB60BB6843F07703BB607B68F7
:102E6C001B68BA689A604FE07B6818683B68996881
:102E7C003B685A683B68DB6800F053F97B681B6859
:102E8C009A687B681B6842F480429A603CE07B68DD
:102E9C0018683B6859683B68DB681A4600F0CAF84A
:102EAC007B681B685021184600F021F92CE07B68E8
:102EBC0018683B6859683B68DB681A4600F0E8F80C
:102ECC007B681B686021184600F011F91CE07B68D8
:102EDC0018683B6859683B68DB681A4600F0AAF82A
:102EEC007B681B684021184600F001F90CE07B68F8
:102EFC001A683B681B681946104600F0F8F803E0A6
:102F0C000123FB7300E000BF7B68012283F83D20A6
:102F1C007B68002283F83C20FB7B18461037BD46AB
:102F2C0080BD80B483B000AF786000BF0C37BD4665
:102F3C0080BC704780B483B000AF786000BF0C37A2
:102F4C00BD4680BC704780B483B000AF786000BFD2
:102F5C000C37BD4680BC704780B483B000AF78603E
:102F6C0000BF0C37BD4680BC7047000080B485B0F4
:102F7C0000AF786039607B681B68FB607B682B4A0C
:102F8C00934207D07B68B3F1804F03D07B68284A0B
:102F9C00934208D1FB6823F07003FB603B685B68CD
:102FAC00FA681343FB607B68204A934207D07B6826
:102FBC00B3F1804F03D07B681D4A934208D1FB6864
:102FCC0023F44073FB603B68DB68FA681343FB60D7
:102FDC00FB6823F080023B685B691343FB607B68F2
:102FEC00FA681A603B689A687B68DA623B681A6810
:102FFC007B689A627B680D4A934203D13B681A69DD
:10300C007B681A637B6801225A617B681B6903F039
:10301C000103002B05D07B681B6923F001027B6840
:10302C001A6100BF1437BD4680BC7047002C0140AC
:10303C000004004080B487B000AFF860B9607A60DB
:10304C00FB681B6A7B61FB681B6A23F00102FB684F
:10305C001A62FB689B693B613B6923F0F0033B619F
:10306C007B681B013A6913433B617B6923F00A03BC
:10307C007B617A69BB6813437B61FB683A699A612F
:10308C00FB687A691A6200BF1C37BD4680BC70476A
:10309C0080B487B000AFF860B9607A60FB681B6AD7
:1030AC007B61FB681B6A23F01002FB681A62FB68E9
:1030BC009B693B613B6923F470433B617B681B0359
:1030CC003A6913433B617B6923F0A0037B61BB68C6
:1030DC001B017A6913437B61FB683A699A61FB684F
:1030EC007A691A6200BF1C37BD4680BC704780B439
:1030FC0085B000AF786039607B689B68FB60FB68CB
:10310C0023F07003FB603A68FB68134343F007033A
:10311C00FB607B68FA689A6000BF1437BD4680BCC0
:10312C00704780B487B000AFF860B9607A603B60DC
:10313C00FB689B687B617B6923F47F437B613B6805
:10314C001A027B681A43BB6813437A6913437B6189
:10315C00FB687A699A6000BF1C37BD4680BC70471B
:10316C0080B485B000AF786039607B6893F83C30F0
:10317C00012B01D1022341E07B68012283F83C2022
:10318C007B68022283F83D207B681B685B68FB60D0
:10319C007B681B689B68BB60FB6823F07003FB605B
:1031AC003B681B68FA681343FB607B681B68FA6812
:1031BC005A607B681B68144A934209D07B681B6871
:1031CC00B3F1804F04D07B681B68104A93420CD13A
:1031DC00BB6823F08003BB603B685B68BA68134331
:1031EC00BB607B681B68BA689A607B68012283F8B5
:1031FC003D207B68002283F83C20002318461437BE
:10320C00BD4680BC704700BF002C0140000400404C
:10321C0080B483B000AF786000BF0C37BD4680BC73
:10322C00704780B483B000AF786000BF0C37BD46E8
:10323C0080BC704770B500260C4D0D4C641BA4105F
:10324C00A64209D100F022F800260A4D0A4C641B54
:10325C00A410A64205D170BD55F8043B9847013621
:10326C00EEE755F8043B98470136F2E7D4320008F4
:10327C00D4320008D4320008D83200080346024485
:10328C00934200D1704703F8011BF9E7F8B500BF72
:10329C00F8BC08BC9E467047F8B500BFF8BC08BC2B
:0432AC009E46704783
:1032B00000000000000000000102030406070809E6
:1032C00002030405060708090A0B0C0D0E0F101067
:0432D00001020000F7
:0432D40031010008BC
:0432D8000D010008DC
:1032DC000008014000080140000801404000800047
:1032EC0000010000010000000100000001000000CE
:1032FC0001000000010000000100000001000000BE
:10330C0001000000010000000100000001000000AD
:10331C000100000064000000640000006400000074
:10332C0001000000010000000A0000000500000080
:10333C00020000000300000000127A0010000000E0
:04334C00010000007C
:0400000508001C21B2
:00000001FF
