:020000040800F2
:1000000000280020791B0008091B00080F1B0008AE
:10001000151B00081B1B0008211B00080000000026
:10002000000000000000000000000000271B000886
:10003000331B0008000000003F1B00084B1B00089A
:10004000C11B0008C11B0008C11B0008C11B000820
:10005000C11B0008C11B0008C11B0008C11B000810
:10006000C11B0008C11B0008C11B0008C11B000800
:10007000C11B0008C11B0008C11B0008C11B0008F0
:10008000C11B0008C11B0008C11B0008C11B0008E0
:10009000C11B0008C11B0008C11B0008C11B0008D0
:1000A000C11B0008C11B0008C11B0008C11B0008C0
:1000B000591B0008C11B000800000000C11B0008FC
:1000C000C11B00080000000000000000C11B000868
:1000D00000000000C11B0008C11B00080000000058
:1000E000C11B0008C11B0008C11B00080000000064
:1000F0000000000000000000000000000000000000
:0C01000000000000000000005FF808F1A3
:10010C0010B5054C237833B9044B13B10448AFF345
:10011C0000800123237010BD74000020000000003B
:10012C00F031000808B5034B1BB103490348AFF38A
:10013C00008008BD0000000078000020F0310008AD
:10014C0080B582B000AF78607B68092B00F28081AB
:10015C0001A252F823F000BF8D010008D501000860
:10016C001D02000865020008AD020008F502000837
:10017C003D03000885030008CD03000815040008A2
:10018C0000220121C64802F018F800220221C448BE
:10019C0002F013F800220421C14802F00EF80022EC
:1001AC000821BF4802F009F800221021BC4802F0D7
:1001BC0004F800222021BA4801F0FFFF012240215F
:1001CC00B74801F0FAFF67E101220121B44801F0C0
:1001DC00F4FF00220221B24801F0EFFF00220421BB
:1001EC00AF4801F0EAFF01220821AD4801F0E5FF1C
:1001FC0001221021AA4801F0E0FF01222021A84889
:10020C0001F0DBFF01224021A54801F0D6FF43E1BC
:10021C0000220121A24801F0D0FF00220221A048B7
:10022C0001F0CBFF012204219D4801F0C6FF002202
:10023C0008219B4801F0C1FF00221021984801F0D1
:10024C00BCFF01222021964801F0B7FF002240217B
:10025C00934801F0B2FF1FE100220121904801F008
:10026C00ACFF002202218E4801F0A7FF00220421DE
:10027C008B4801F0A2FF00220821894801F09DFF64
:10028C0001221021864801F098FF01222021844888
:10029C0001F093FF00224021814801F08EFFFBE02A
:1002AC00012201217E4801F088FF002202217C48B6
:1002BC0001F083FF00220421794801F07EFF012226
:1002CC000821774801F079FF01221021744801F0D0
:1002DC0074FF00222021724801F06FFF00224021A0
:1002EC006F4801F06AFFD7E0002201216C4801F051
:1002FC0064FF012202216A4801F05FFF0022042101
:10030C00674801F05AFF00220821654801F055FFAB
:10031C0001221021624801F050FF00222021604888
:10032C0001F04BFF002240215D4801F046FFB3E095
:10033C00002201215A4801F040FF012202215848B5
:10034C0001F03BFF00220421554801F036FF00224A
:10035C000821534801F031FF00221021504801F0D0
:10036C002CFF002220214E4801F027FF00224021C3
:10037C004B4801F022FF8FE000220121484801F098
:10038C001CFF00220221464801F017FF0022042125
:10039C00434801F012FF01220821414801F00DFFF2
:1003AC00012210213E4801F008FF012220213C4887
:1003BC0001F003FF01224021394801F0FEFE6BE001
:1003CC0000220121364801F0F8FE002202213448B7
:1003DC0001F0F3FE00220421314801F0EEFE002270
:1003EC0008212F4801F0E9FE002210212C4801F0D1
:1003FC00E4FE002220212A4801F0DFFE00224021E9
:10040C00274801F0DAFE47E000220121244801F0E0
:10041C00D4FE00220221224801F0CFFE002204214A
:10042C001F4801F0CAFE002208211D4801F0C5FE3C
:10043C00012210211A4801F0C0FE00222021184888
:10044C0001F0BBFE00224021154801F0B6FE23E06E
:10045C0001220121124801F0B0FE012202211048B4
:10046C0001F0ABFE012204210D4801F0A6FE012291
:10047C0008210B4801F0A1FE01221021084801F0CF
:10048C009CFE01222021064801F097FE012240210A
:10049C00034801F092FE00BF00BF0837BD4680BD87
:1004AC00000C014080B582B000AF78607B68092BEE
:1004BC0000F2BE8101A252F823F000BFF104000843
:1004CC004505000899050008ED05000841060008DF
:1004DC0095060008E90600083D070008910700088A
:1004EC00E507000800228021D04801F066FE0022BA
:1004FC004FF48071CD4801F060FE00224FF4007182
:10050C00CA4801F05AFE00224FF48061C74801F03E
:10051C0054FE00224FF40061C44801F04EFE00224C
:10052C004FF48051C14801F048FE01224FF40051B4
:10053C00BE4801F042FEA5E101228021BB4801F03A
:10054C003CFE00224FF48071B84801F036FE0022C8
:10055C004FF40071B54801F030FE01224FF4806178
:10056C00B24801F02AFE01224FF40061AF4801F0BD
:10057C0024FE01224FF48051AC4801F01EFE0122F2
:10058C004FF40051A94801F018FE7BE100228021B4
:10059C00A64801F012FE00224FF48071A34801F02E
:1005AC000CFE01224FF40071A04801F006FE00225F
:1005BC004FF480619D4801F000FE00224FF4006171
:1005CC009A4801F0FAFD01224FF48051974801F04E
:1005DC00F4FD00224FF40051944801F0EEFD51E17E
:1005EC0000228021914801F0E8FD00224FF4807137
:1005FC008E4801F0E2FD00224FF400718B4801F0AF
:10060C00DCFD00224FF48061884801F0D6FD012208
:10061C004FF40061854801F0D0FD01224FF4805168
:10062C00824801F0CAFD00224FF400517F4801F0CE
:10063C00C4FD27E1012280217C4801F0BEFD00228F
:10064C004FF48071794801F0B8FD00224FF400712D
:10065C00764801F0B2FD01224FF48061734801F03D
:10066C00ACFD01224FF40061704801F0A6FD0022A0
:10067C004FF480516D4801F0A0FD00224FF4005161
:10068C006A4801F09AFDFDE000228021674801F0E4
:10069C0094FD01224FF48071644801F08EFD00221C
:1006AC004FF40071614801F088FD00224FF4806125
:1006BC005E4801F082FD01224FF400615B4801F0BD
:1006CC007CFD00224FF48051584801F076FD002249
:1006DC004FF40051554801F070FDD3E00022802109
:1006EC00524801F06AFD01224FF480714F4801F02D
:1006FC0064FD00224FF400714C4801F05EFD0022B5
:10070C004FF48061494801F058FD00224FF400611C
:10071C00464801F052FD00224FF48051434801F04D
:10072C004CFD00224FF40051404801F046FDA9E079
:10073C00002280213D4801F040FD00224FF48071E1
:10074C003A4801F03AFD00224FF40071374801F0AD
:10075C0034FD01224FF48061344801F02EFD01225A
:10076C004FF40061314801F028FD01224FF4805113
:10077C002E4801F022FD01224FF400512B4801F0CC
:10078C001CFD7FE000228021284801F016FD00228C
:10079C004FF48071254801F010FD00224FF40071D8
:1007AC00224801F00AFD00224FF480611F4801F03D
:1007BC0004FD00224FF400611C4801F0FEFC0022F5
:1007CC004FF48051194801F0F8FC00224FF400510D
:1007DC00164801F0F2FC55E000228021134801F08C
:1007EC00ECFC00224FF48071104801F0E6FC002272
:1007FC004FF400710D4801F0E0FC00224FF48061D1
:10080C000A4801F0DAFC01224FF40061074801F0BC
:10081C00D4FC00224FF48051044801F0CEFC00229D
:10082C004FF40051014801F0C8FC2BE0000C0140D2
:10083C0001228021154801F0C0FC01224FF4807187
:10084C00124801F0BAFC01224FF400710F4801F07C
:10085C00B4FC01224FF480610C4801F0AEFC012283
:10086C004FF40061094801F0A8FC01224FF48051BB
:10087C00064801F0A2FC01224FF40051034801F09C
:10088C009CFC00BF00BF0837BD4680BD000C01407A
:10089C0080B582B000AF78607B68002B03D07B689A
:1008AC00012B0BD015E000220221114801F085FC30
:1008BC00012204210E4801F080FC15E001220221E6
:1008CC000B4801F07AFC00220421094801F075FC68
:1008DC000AE001220221064801F06FFC01220421EA
:1008EC00034801F06AFC00BF00BF0837BD4680BD5D
:1008FC000008014080B582B000AF78607B68002BA7
:10090C0003D07B68012B0BD015E000220821114885
:10091C0001F053FC012210210E4801F04EFC15E0B1
:10092C00012208210B4801F048FC00221021094843
:10093C0001F043FC0AE001220821064801F03DFCCD
:10094C0001221021034801F038FC00BF00BF08371A
:10095C00BD4680BD0008014080B483B000AF786014
:10096C007B68134A82FB03129210DB17D11A104BCF
:10097C0083FB01239A10CB17D21A13469B00134406
:10098C005B00CA1A0B4B1A607968094B83FB012375
:10099C009A10CB17D21A13469B0013445B00CA1A49
:1009AC00044B5A6000BF0C37BD4680BC704700BF7B
:1009BC0067666666B000002080B483B000AF7860D4
:1009CC007B68134A82FB03129210DB17D11A104B6F
:1009DC0083FB01239A10CB17D21A13469B001344A6
:1009EC005B00CA1A0B4B1A607968094B83FB012315
:1009FC009A10CB17D21A13469B0013445B00CA1AE9
:100A0C00044B5A6000BF0C37BD4680BC704700BF1A
:100A1C0067666666A800002080B483B000AF78607B
:100A2C00094A7B6852F82330012B06D1064A7B68B1
:100A3C00002142F82310012300E0002318460C3754
:100A4C00BD4680BC704700BF9000002080B483B0CE
:100A5C0000AF7860044A7B68012142F8231000BF84
:100A6C000C37BD4680BC70479000002080B582B02A
:100A7C0000AF7860374A7B6852F8232036497B6890
:100A8C0041F82320354A7B6852F8232031497B6892
:100A9C0041F82320324A7B6852F8232031497B6885
:100AAC0031F813301946104601F070FB0346194615
:100ABC002A4A7B6842F82310274A7B6852F8232085
:100ACC0024497B6851F823309A423FD1214A7B68F4
:100ADC0052F8232021497B6851F823309A4235D1B2
:100AEC00214A7B6852F823201C497B6851F823303B
:100AFC009A4217D0194A7B6852F823201A497B680E
:100B0C0041F82320154A7B6852F82330002B1DD165
:100B1C007868FFF79BFF154A7B684FF4FA7142F82F
:100B2C00231013E0114A7B6852F823305A1E0F49E8
:100B3C007B6841F823200D4A7B6852F82330002B48
:100B4C0004DC094A7B68012142F8231000BF0837F6
:100B5C00BD4680BD20000020140000202C00002089
:100B6C00000000200C000020380000204400002071
:100B7C0080B582B000AF4E4B1A684E4B83FB02130C
:100B8C005911D317CB1A642101FB03F3D31A002B91
:100B9C000BD1474B1B68474A82FB03125211DB17E0
:100BAC00D31A7B607868FFF707FF434B1B68012B58
:100BBC001CD14FF4967000F0FDFD404B1B68404A71
:100BCC0052F823301846FFF7BBFA3C4B1B6818460B
:100BDC00FFF75EFE394B1B680133384A1360374B05
:100BEC001B68012B02DD354B00221A60354B1B684C
:100BFC00013B032B57D801A252F823F0190C000823
:100C0C00370C00085D0C0008830C000800F072FB28
:100C1C002D4B1B684FF47A7202FB03F3184600F05D
:100C2C0091FD284B02221A603DE000F0C3FB274BDC
:100C3C001B68012B32D1264B1B684FF47A7202FBD6
:100C4C0003F3184600F07EFD1E4B03221A6025E0CC
:100C5C0000F0C8FB1D4B1B68012B21D11D4B1B68E1
:100C6C004FF47A7202FB03F3184600F06BFD154B40
:100C7C0004221A6014E000F0CDFB144B1B68012B0E
:100C8C0010D1114B1B684FF47A7202FB03F3184618
:100C9C0000F058FD0B4B02221A6003E000BF02E08B
:100CAC0000BF00E000BF00BF0837BD4680BD00BFDD
:100CBC00B80000201F85EB51C4000020A0000020CC
:100CCC00A8000020500000205C000020BC00002088
:100CDC00640000206000002080B582B000AF4E4B55
:100CEC001A684E4B83FB02135911D317CB1A64218C
:100CFC0001FB03F3D31A002B0BD1474B1B68474A5C
:100D0C0082FB03125211DB17D31A7B607868FFF752
:100D1C0023FE434B1B68012B1CD14FF4967000F043
:100D2C0081FD404B1B68404A52F823301846FFF7B0
:100D3C00B9FB3C4B1B681846FFF7DCFD394B1B68B5
:100D4C000133384A1360374B1B68012B02DD354BDE
:100D5C0000221A60354B1B68013B032B57D801A2AC
:100D6C0052F823F0810D00089F0D0008C50D0008F6
:100D7C00EB0D000800F006FB2D4B1B684FF47A724C
:100D8C0002FB03F3184600F031FD284B03221A60D6
:100D9C003DE000F057FB274B1B68012B32D1244B55
:100DAC001B684FF47A7202FB03F3184600F01EFD29
:100DBC001E4B03221A6025E000F05CFB1D4B1B68E8
:100DCC00012B21D11C4B1B684FF47A7202FB03F3ED
:100DDC00184600F00BFD154B04221A6014E000F0CD
:100DEC0061FB144B1B68012B10D1144B1B684FF487
:100DFC007A7202FB03F3184600F0F8FC0B4B02224C
:100E0C001A6003E000BF02E000BF00E000BF00BFBB
:100E1C000837BD4680BD00BFC80000201F85EB51C0
:100E2C00D4000020A4000020B000002054000020BA
:100E3C0064000020CC000020600000205C0000203A
:100E4C0080B582B000AF786000F054FA00F09AFAE6
:100E5C00044A7B6813600A2000F01CFD00BF0837B1
:100E6C00BD4680BD5800002080B582B000AF7860D0
:100E7C003960314B00221A602F4A7B685360396805
:100E8C002E4B83FB01239A10CB17D21A13469B00CF
:100E9C0013445B00CA1A2A4B5A603B68274A82FBF0
:100EAC0003129210DB17D31A254A1360254B1B68CB
:100EBC00012B1CD14FF4967000F060FC224B1B6888
:100ECC001D4A52F823301846FFF73AF91E4B1B689F
:100EDC001846FFF7DDFC1C4B1B6801331A4A1360E4
:100EEC00194B1B68012B02DD174B00221A60174BA4
:100EFC001B68012B1CD14FF4967000F0AFFC144B07
:100F0C001B680F4A52F823301846FFF7CBFA104BE8
:100F1C001B681846FFF7EEFC0D4B1B6801330C4A9F
:100F2C0013600B4B1B68012B02DD094B00221A606E
:100F3C0000BF0837BD4680BDA80000206766666606
:100F4C00B0000020DC000020A0000020E400002005
:100F5C00A400002080B500AFBA4B1B680A3B0A2BDB
:100F6C0000F2B38101A252F823F000BFA50F0008D4
:100F7C00671000088D100008FF10000871110008A0
:100F8C00F311000821120008A9120008E31100084F
:100F9C00991200088912000800F0C4F900F0DAF97F
:100FAC00A94B00221A60A84B00225A60A74B0022C2
:100FBC005A60A64B00221A60A54B1B68012B1CD152
:100FCC004FF4967000F0DAFBA24B1B689E4A52F865
:100FDC0023301846FFF7B4F89E4B1B681846FFF7F2
:100FEC0057FC9C4B1B6801339A4A1360994B1B6846
:100FFC00012B02DD974B00221A60974B1B68012BCB
:10100C001CD14FF4967000F029FC944B1B688F4A4E
:10101C0052F823301846FFF745FA904B1B681846D8
:10102C00FFF768FC8D4B1B6801338C4A13608B4BAC
:10103C001B68012B02DD894B00221A600020FFF790
:10104C00EBFC0346012B40F04281854B1B68854A23
:10105C0013600B20FFF7F4FE39E1FFF789FDFFF772
:10106C003BFE0020FFF7D8FC0346012B40F03181FA
:10107C007B4B1B687B4A13600C20FFF7E1FE28E1D9
:10108C00784B1B6819460220FFF7EEFE0020FFF795
:10109C00C3FC0346012B06D1734B1B68714A1360CA
:1010AC000D20FFF7CDFE714B1B68012B0DD14FF4BA
:1010BC00FA7000F0EFFB4FF400516D4801F095F819
:1010CC004FF480616A4801F090F80120FFF7A4FC0E
:1010DC000346012B02D10F20FFF7B2FE0220FFF7CF
:1010EC009BFC0346012B40F0F6801220FFF7A8FE74
:1010FC00F1E05C4B1B6819460320FFF7B5FE00209E
:10110C00FFF78AFC0346012B06D15A4B1B68554A44
:10111C0013600E20FFF794FE544B1B68012B0DD16E
:10112C004FF4FA7000F0B6FB4FF40041504801F058
:10113C005CF84FF480514E4801F057F80120FFF74E
:10114C006BFC0346012B02D11020FFF779FE022025
:10115C00FFF762FC0346012B40F0BF801420FFF721
:10116C006FFEBAE03F4B1B6819460420FFF77CFE6C
:10117C000020FFF751FC0346012B06D1384B1B68AE
:10118C00384A13600A20FFF75BFE384B1B68012BB3
:10119C000DD14FF4FA7000F07DFB4FF480413448D0
:1011AC0001F023F84FF40061314801F01EF80120E2
:1011BC00FFF732FC0346012B02D11120FFF740FE52
:1011CC000220FFF729FC0346012B40F088801320F6
:1011DC00FFF736FE83E0234B1B68214A13600C207B
:1011EC00FFF72EFE7CE01F4B1B6801331D4A13607A
:1011FC001C4B1A68204B83FB02135911D317CB1AC3
:10120C00642101FB03F3D31A164A13600C20FFF779
:10121C0017FE65E0134B1B680133124A1360114B28
:10122C001A68154B83FB02135911D317CB1A64217F
:10123C0001FB03F3D31A0B4A13600D20FFF700FEDA
:10124C004EE000BF58000020A8000020B000002095
:10125C00DC000020A0000020E4000020A4000020FE
:10126C005C0000209C00002060000020EC000020AE
:10127C0000080140640000201F85EB51194B1B68CE
:10128C00194A13600D20FFF7DBFD29E0154B1B6895
:10129C00164A13600E20FFF7D3FD21E0114B1B689B
:1012AC000133104A13600F4B1A68114B83FB021366
:1012BC005911D317CB1A642101FB03F3D31A094A32
:1012CC0013600E20FFF7BCFD0AE000BF08E000BF72
:1012DC0006E000BF04E000BF02E000BF00E000BF7A
:1012EC0000BF80BD9C000020600000206400002036
:1012FC001F85EB5180B500AF01224FF48061084887
:10130C0000F05BFF01224FF40061054800F055FF2F
:10131C0001224FF48051024800F04FFF00BF80BD06
:10132C000008014080B500AF00224FF480610848EE
:10133C0000F043FF00224FF40061054800F03DFF30
:10134C0000224FF48051024800F037FF00BF80BDEF
:10135C000008014080B500AF00224FF4005108484E
:10136C0000F02BFF00224FF48041054800F025FFD0
:10137C0000224FF40041024800F01FFF00BF80BD67
:10138C000008014080B500AF01224FF4005108481D
:10139C0000F013FF01224FF48041054800F00DFFCF
:1013AC0001224FF40041024800F007FF00BF80BD4E
:1013BC000008014080B500AF00224FF4806108485E
:1013CC0000F0FBFE01224FF40061054800F0F5FE31
:1013DC0001224FF48051024800F0EFFE00BF80BDA7
:1013EC000008014080B500AF01224FF4806108482D
:1013FC0000F0E3FE00224FF40061054800F0DDFE32
:10140C0001224FF48051024800F0D7FE00BF80BD8E
:10141C000008014080B500AF01224FF480610848FC
:10142C0000F0CBFE01224FF40061054800F0C5FE30
:10143C0000224FF48051024800F0BFFE00BF80BD77
:10144C000008014080B500AF00224FF4005108485D
:10145C0000F0B3FE01224FF48041054800F0ADFED0
:10146C0001224FF40041024800F0A7FE00BF80BDEE
:10147C000008014080B500AF01224FF4005108482C
:10148C0000F09BFE00224FF48041054800F095FED1
:10149C0001224FF40041024800F08FFE00BF80BDD6
:1014AC000008014080B500AF01224FF400510848FC
:1014BC0000F083FE01224FF48041054800F07DFED0
:1014CC0000224FF40041024800F077FE00BF80BDBF
:1014DC000008014080B500AF00F06EFB00F02EF864
:1014EC0000F068F800F0B2F8114801F0C3FA6E2071
:1014FC0000F028F9782000F05DF9822000F076F9F0
:10150C008C2000F08FF9962000F038F9A02000F024
:10151C00A5F9AA2000F0BEF9B42000F0D7F9054BCC
:10152C0001221A60044B01221A60FFF713FDFCE73D
:10153C00F8000020500000205400002080B590B02E
:10154C0000AF07F1180328220021184601F042FED3
:10155C003B1D00221A605A609A60DA601A610223FD
:10156C00BB610123BB621023FB6200237B6307F189
:10157C001803184600F052FE0346002B01D000F071
:10158C00DCF80F237B600023BB600023FB6000238F
:10159C003B6100237B613B1D0021184601F0BEF826
:1015AC000346002B01D000F0C8F800BF4037BD4601
:1015BC0080BD000080B586B000AF07F108030022A3
:1015CC001A605A609A60DA603B4600221A605A60D0
:1015DC001D4B4FF080421A601B4B41F63F725A6014
:1015EC00194B00229A60184B0922DA60164B002224
:1015FC001A61154B00229A61134801F0EBF903466E
:10160C00002B01D000F099F84FF48053BB6007F128
:10161C00080319460C4801F069FB0346002B01D066
:10162C0000F08BF800233B6000237B603B4619469F
:10163C00054801F041FD0346002B01D000F07DF878
:10164C0000BF1837BD4680BDF800002080B586B0BD
:10165C0000AF07F1080300221A605A609A60DA6042
:10166C00294B9B69284A43F004039361264B9B69E1
:10167C0003F004037B607B68234B9B69224A43F095
:10168C0008039361204B9B6903F008033B603B68A4
:10169C0000224FF61E411D4800F08FFD002243F63C
:1016AC00FF711B4800F089FD4FF61E43BB60012300
:1016BC00FB6000233B6102237B6107F108031946A1
:1016CC00124800F0E9FB4FF4E073BB600023FB60B1
:1016DC0001233B6107F1080319460C4800F0DCFBC1
:1016EC0043F6FF73BB600123FB6000233B610223C5
:1016FC007B6107F108031946054800F0CDFB00BFDC
:10170C001837BD4680BD00BF0010024000080140E4
:10171C00000C014080B582B000AF786000F0F2F8A8
:10172C000020FFF7A3F90120FFF7A0F90220FFF733
:10173C009DF900BF0837BD4680BD80B400AF72B6BE
:10174C0000BFFEE780B483B000AF78607B68084AC6
:10175C0082FB03129210DB17D31A064A1360064B56
:10176C0000221A6000BF0C37BD4680BC704700BF1A
:10177C0067666666B8000020BC00002080B483B0A9
:10178C0000AF78607B68084A82FB03129210DB176B
:10179C00D31A064A1360064B00221A6000BF0C379E
:1017AC00BD4680BC704700BF67666666D8000020E7
:1017BC00DC00002080B483B000AF78607B68084AFE
:1017CC0082FB03129210DB17D31A064A1360064BE6
:1017DC0000221A6000BF0C37BD4680BC704700BFAA
:1017EC0067666666C0000020C400002080B483B029
:1017FC0000AF78607B68084A82FB03129210DB17FB
:10180C00D31A064A1360064B00221A6000BF0C372D
:10181C00BD4680BC704700BF67666666C800002086
:10182C00CC00002080B483B000AF78607B68084A9D
:10183C0082FB03129210DB17D31A064A1360064B75
:10184C0000221A6000BF0C37BD4680BC704700BF39
:10185C0067666666D0000020D400002080B483B098
:10186C0000AF78607B68084A82FB03129210DB178A
:10187C00D31A064A1360064B00221A6000BF0C37BD
:10188C00BD4680BC704700BF67666666E0000020FE
:10189C00E400002080B483B000AF78607B68084A15
:1018AC0082FB03129210DB17D31A064A1360064B05
:1018BC0000221A6000BF0C37BD4680BC704700BFC9
:1018CC0067666666E8000020EC00002080B483B0F8
:1018DC0000AF78607B68084A82FB03129210DB171A
:1018EC00D31A064A1360064B00221A6000BF0C374D
:1018FC00BD4680BC704700BF67666666F00000207E
:10190C00F400002080B400AF414B1B68002B0BDDB2
:10191C003F4B1B68013B3E4A13603D4B1B68002B41
:10192C0002DC3C4B01221A603B4B1B68002B0BDD8D
:10193C00394B1B68013B384A1360374B1B68002B33
:10194C0002DC364B01221A60354B1B68002B0BDD79
:10195C00334B1B68013B324A1360314B1B68002B25
:10196C0002DC304B01221A602F4B1B68002B0BDD65
:10197C002D4B1B68013B2C4A13602B4B1B68002B17
:10198C0002DC2A4B01221A60294B1B68002B0BDD51
:10199C00274B1B68013B264A1360254B1B68002B09
:1019AC0002DC244B01221A60234B1B68002B0BDD3D
:1019BC00214B1B68013B204A13601F4B1B68002BFB
:1019CC0002DC1E4B01221A601D4B1B68002B0BDD29
:1019DC001B4B1B68013B1A4A1360194B1B68002BED
:1019EC0002DC184B01221A60174B1B68002B0BDD15
:1019FC00154B1B68013B144A1360134B1B68002BDF
:101A0C0002DC124B01221A6000BFBD4680BC70473D
:101A1C00B8000020BC000020C0000020C400002042
:101A2C00C8000020CC000020D0000020D4000020F2
:101A3C00D8000020DC000020E0000020E4000020A2
:101A4C00E8000020EC000020F0000020F400002052
:101A5C0080B485B000AF154B9B69144A43F0010369
:101A6C009361124B9B6903F00103BB60BB680F4B86
:101A7C00DB690E4A43F08053D3610C4BDB6903F0F6
:101A8C0080537B607B680A4B5B68FB60FB6823F0D0
:101A9C00E063FB60FB6843F08063FB60044AFB6817
:101AAC00536000BF1437BD4680BC70470010024025
:101ABC000000014080B584B000AF78607B681B6883
:101ACC00B3F1804F13D10C4BDB690B4A43F001038C
:101ADC00D361094BDB6903F00103FB60FB68002257
:101AEC0000211C2000F0A1F91C2000F0BAF900BF65
:101AFC001037BD4680BD00BF0010024080B400AF5F
:101B0C00FEE780B400AFFEE780B400AFFEE780B420
:101B1C0000AFFEE780B400AFFEE780B400AF00BFBB
:101B2C00BD4680BC704780B400AF00BFBD4680BCD2
:101B3C00704780B400AF00BFBD4680BC704780B515
:101B4C0000AF00F07FF800BF80BD000080B500AF93
:101B5C00024800F0DBFF00BF80BD00BFF800002092
:101B6C0080B400AF00BFBD4680BC7047FFF7F8FFE4
:101B7C000B480C490C4A002302E0D458C4500433DF
:101B8C00C4188C42F9D3094A094C002301E01360B4
:101B9C000432A242FBD301F0F9FAFFF79BFC704729
:101BAC000000002074000020343200087400002073
:101BBC0044010020FEE7000080B500AF084B1B6815
:101BCC00074A43F010031360032000F023F90F20A1
:101BDC0000F008F8FFF73CFF0023184680BD00BF5B
:101BEC000020024080B582B000AF7860124B1A68BA
:101BFC00124B1B7819464FF47A73B3FBF1F3B2FB1B
:101C0C00F3F3184600F03BF90346002B01D00123F7
:101C1C000EE07B680F2B0AD8002279684FF0FF305A
:101C2C0000F003F9064A7B681360002300E00123EF
:101C3C0018460837BD4680BD6800002070000020A3
:101C4C006C00002080B400AF054B1B781A46054B86
:101C5C001B681344034A136000BFBD4680BC704729
:101C6C00700000204001002080B400AF024B1B68C4
:101C7C001846BD4680BC70474001002080B485B03A
:101C8C0000AF78607B6803F00703FB600C4BDB68EC
:101C9C00BB60BA684FF6FF031340BB60FB681A02C7
:101CAC00BB68134343F0BF6343F40033BB60044A87
:101CBC00BB68D36000BF1437BD4680BC704700BF03
:101CCC0000ED00E080B400AF044BDB681B0A03F0AE
:101CDC0007031846BD4680BC704700BF00ED00E00E
:101CEC0080B483B000AF0346FB7197F90730002B2B
:101CFC000BDBFB7903F01F02064997F907305B09F0
:101D0C00012000FA02F241F8232000BF0C37BD4637
:101D1C0080BC704700E100E080B483B000AF0346A4
:101D2C003960FB7197F90730002B0ADB3B68DAB29C
:101D3C000C4997F907301201D2B20B4483F80023F7
:101D4C000AE03B68DAB20849FB7903F00F03043B65
:101D5C001201D2B20B441A7600BF0C37BD4680BCC0
:101D6C00704700BF00E100E000ED00E080B489B0F6
:101D7C0000AFF860B9607A60FB6803F00703FB61A1
:101D8C00FB69C3F10703042B28BF0423BB61FB6968
:101D9C000433062B02D9FB69033B00E000237B6173
:101DAC004FF0FF32BB6902FA03F3DA43BB681A4007
:101DBC007B699A404FF0FF317B6901FA03F3D943F9
:101DCC007B680B40134318462437BD4680BC7047D4
:101DDC0080B582B000AF78607B68013BB3F1807F47
:101DEC0001D301230FE00A4A7B68013B53600F21AA
:101DFC004FF0FF30FFF790FF054B00229A60044B29
:101E0C0007221A60002318460837BD4680BD00BF64
:101E1C0010E000E080B582B000AF78607868FFF722
:101E2C002DFF00BF0837BD4680BD80B586B000AF22
:101E3C000346B9607A60FB7300237B61FFF742FFB6
:101E4C0078617A68B9687869FFF790FF024697F96C
:101E5C000F3011461846FFF75FFF00BF1837BD461D
:101E6C0080BD80B582B000AF0346FB7197F9073097
:101E7C001846FFF735FF00BF0837BD4680BD80B55B
:101E8C0082B000AF78607868FFF7A2FF034618466F
:101E9C000837BD4680BD000080B48BB000AF7860C1
:101EAC00396000237B6200233B6248E101227B6A9C
:101EBC0002FA03F3FB613B681B68FA691340BB61D0
:101ECC00BA69FB699A4240F037813B685B68A34A68
:101EDC0093425ED0A14A934275D8A14A934258D0FE
:101EEC009F4A93426FD89F4A934252D09D4A934245
:101EFC0069D89D4A93424CD09B4A934263D89B4AE3
:101F0C00934246D0994A93425DD8122B2AD8122B71
:101F1C0059D801A252F823F09F1F0008791F00081E
:101F2C008B1F0008CD1F0008D31F0008D31F00080B
:101F3C00D31F0008D31F0008D31F0008D31F0008AD
:101F4C00D31F0008D31F0008D31F0008D31F00089D
:101F5C00D31F0008D31F0008D31F0008811F0008DF
:101F6C00951F0008824A934213D02CE03B68DB6833
:101F7C003B6229E03B68DB6804333B6224E03B684E
:101F8C00DB6808333B621FE03B68DB680C333B6269
:101F9C001AE03B689B68002B02D104233B6213E0E0
:101FAC003B689B68012B05D108233B627B68FA696F
:101FBC001A6109E008233B627B68FA695A6103E005
:101FCC0000233B6200E000BFBB69FF2B01D87B689C
:101FDC0001E07B6804337B61BB69FF2B02D87B6A11
:101FEC009B0002E07B6A083B9B003B617B691A68A3
:101FFC000F213B6901FA03F3DB431A40396A3B6951
:10200C0001FA03F31A437B691A603B685B6803F0BF
:10201C008053002B00F09080564B9B69554A43F03F
:10202C0001039361534B9B6903F00103BB60BB68D5
:10203C00514A7B6A9B08023352F82330FB607B6A5F
:10204C0003F003039B000F2202FA03F3DB43FA684D
:10205C001340FB607B68494A93420DD07B68484A29
:10206C00934207D07B68474A934201D1022304E094
:10207C00032302E0012300E000237A6A02F003024A
:10208C0092009340FA681343FB603B497B6A9B08C0
:10209C000233FA6841F823203B685B6803F4801331
:1020AC00002B06D0384B9A683749BB6913438B60B9
:1020BC0006E0354B9A68BB69DB43334913408B60B0
:1020CC003B685B6803F40013002B06D02E4BDA68D8
:1020DC002D49BB691343CB6006E02B4BDA68BB6917
:1020EC00DB4329491340CB603B685B6803F4003346
:1020FC00002B06D0244B5A682349BB6913434B6011
:10210C0006E0214B5A68BB69DB431F4913404B6007
:10211C003B685B6803F48033002B06D01A4B1A68BB
:10212C001949BB6913430B6006E0174B1A68BB696E
:10213C00DB43154913400B607B6A01337B623B68C0
:10214C001A687B6A22FA03F3002B7FF4AFAE00BF50
:10215C0000BF2C37BD4680BC704700BF000032105A
:10216C00000031100000221000002110000012109D
:10217C000000111000100240000001400008014056
:10218C00000C0140001001400004014080B485B0F7
:10219C0000AF78600B467B807B689A687B88134025
:1021AC00002B02D00123FB7301E00023FB73FB7BAC
:1021BC0018461437BD4680BC704780B483B000AF5E
:1021CC0078600B467B8013467B707B78002B03D0AA
:1021DC007A887B681A6103E07B881A047B681A6131
:1021EC0000BF0C37BD4680BC704780B485B000AFD3
:1021FC0078600B467B807B68DB68FB607A88FB68C9
:10220C0013401A04FB68D9437B880B401A437B6844
:10221C001A6100BF1437BD4680BC704780B586B0CC
:10222C0000AF78607B68002B01D101236CE27B68E6
:10223C001B6803F00103002B00F08780924B5B6856
:10224C0003F00C03042B0CD08F4B5B6803F00C03D6
:10225C00082B12D18C4B5B6803F48033B3F5803FB1
:10226C000BD1894B1B6803F40033002B6CD07B68BB
:10227C005B68002B68D1012346E27B685B68B3F591
:10228C00803F06D1804B1B687F4A43F48033136038
:10229C002EE07B685B68002B0CD17B4B1B687A4A69
:1022AC0023F480331360784B1B68774A23F4802324
:1022BC0013601DE07B685B68B3F5A02F0CD1724BEB
:1022CC001B68714A43F4802313606F4B1B686E4A82
:1022DC0043F4803313600BE06B4B1B686A4A23F4A6
:1022EC0080331360684B1B68674A23F480231360A8
:1022FC007B685B68002B13D0FFF7B6FC386108E0F5
:10230C00FFF7B2FC02463B69D31A642B01D90323B5
:10231C00FAE15D4B1B6803F40033002BF0D014E0A2
:10232C00FFF7A2FC386108E0FFF79EFC02463B6910
:10233C00D31A642B01D90323E6E1534B1B6803F436
:10234C000033002BF0D100E000BF7B681B6803F06A
:10235C000203002B63D04C4B5B6803F00C03002B87
:10236C000BD0494B5B6803F00C03082B1CD1464B7C
:10237C005B6803F48033002B16D1434B1B6803F0CE
:10238C000203002B05D07B681B69012B01D00123B4
:10239C00BAE13D4B1B6823F0F8027B685B69DB00FC
:1023AC00394913430B603AE07B681B69002B20D042
:1023BC00364B01221A60FFF757FC386108E0FFF733
:1023CC0053FC02463B69D31A022B01D903239BE130
:1023DC002D4B1B6803F00203002BF0D02A4B1B681B
:1023EC0023F0F8027B685B69DB00274913430B6021
:1023FC0015E0264B00221A60FFF736FC386108E026
:10240C00FFF732FC02463B69D31A022B01D9032396
:10241C007AE11D4B1B6803F00203002BF0D17B68A3
:10242C001B6803F00803002B3AD07B689B69002BD8
:10243C0019D0174B01221A60FFF716FC386108E01F
:10244C00FFF712FC02463B69D31A022B01D9032376
:10245C005AE10D4B5B6A03F00203002BF0D0012014
:10246C0000F09AFA1CE00A4B00221A60FFF7FCFB02
:10247C0038610FE0FFF7F8FB02463B69D31A022BD9
:10248C0008D9032340E100BF001002400000424283
:10249C00800442429E4B5B6A03F00203002BE9D19D
:1024AC007B681B6803F00403002B00F0A68000235C
:1024BC00FB75974BDB6903F08053002B0DD1944BCC
:1024CC00DB69934A43F08053D361914BDB6903F092
:1024DC008053BB60BB680123FB758E4B1B6803F4F8
:1024EC008073002B18D18B4B1B688A4A43F4807382
:1024FC001360FFF7B9FB386108E0FFF7B5FB024644
:10250C003B69D31A642B01D90323FDE0814B1B6873
:10251C0003F48073002BF0D07B68DB68012B06D1B1
:10252C007B4B1B6A7A4A43F0010313622DE07B68F4
:10253C00DB68002B0CD1764B1B6A754A23F0010328
:10254C001362734B1B6A724A23F0040313621CE080
:10255C007B68DB68052B0CD16D4B1B6A6C4A43F016
:10256C00040313626A4B1B6A694A43F0010313624A
:10257C000BE0674B1B6A664A23F001031362644B42
:10258C001B6A634A23F0040313627B68DB68002B2D
:10259C0015D0FFF769FB38610AE0FFF765FB0246CF
:1025AC003B69D31A41F28832934201D90323ABE041
:1025BC00574B1B6A03F00203002BEED014E0FFF71D
:1025CC0053FB38610AE0FFF74FFB02463B69D31A15
:1025DC0041F28832934201D9032395E04C4B1B6A9C
:1025EC0003F00203002BEED1FB7D012B05D1484BF0
:1025FC00DB69474A23F08053D3617B68DB69002B8E
:10260C0000F08180424B5B6803F00C03082B61D017
:10261C007B68DB69022B46D13F4B00221A60FFF727
:10262C0023FB386108E0FFF71FFB02463B69D31A16
:10263C00022B01D9032367E0354B1B6803F00073B1
:10264C00002BF0D17B681B6AB3F5803F08D1304B6F
:10265C005B6823F400327B689B682D4913434B6005
:10266C002B4B5B6823F474127B68196A7B685B6A7A
:10267C000B43274913434B60274B01221A60FFF78A
:10268C00F3FA386108E0FFF7EFFA02463B69D31A18
:10269C00022B01D9032337E01D4B1B6803F0007399
:1026AC00002BF0D02FE01C4B00221A60FFF7DCFA55
:1026BC00386108E0FFF7D8FA02463B69D31A022BBF
:1026CC0001D9032320E0124B1B6803F00073002B8D
:1026DC00F0D118E07B68DB69012B01D1012313E0F9
:1026EC000B4B5B68FB60FB6803F480327B681B6AF6
:1026FC009A4206D1FB6803F470127B685B6A9A42BB
:10270C0001D0012300E0002318461837BD4680BDD8
:10271C0000100240007000406000424280B584B05E
:10272C0000AF786039607B68002B01D10123D0E0C9
:10273C006A4B1B6803F007033A689A4210D9674B3F
:10274C001B6823F0070265493B6813430B60634B1E
:10275C001B6803F007033A689A4201D00123B8E0E2
:10276C007B681B6803F00203002B20D07B681B687E
:10277C0003F00403002B05D0594B5B68584A43F413
:10278C00E06353607B681B6803F00803002B05D0E3
:10279C00534B5B68524A43F460535360504B5B6835
:1027AC0023F0F0027B689B684D4913434B607B68B8
:1027BC001B6803F00103002B40D07B685B68012B86
:1027CC0007D1474B1B6803F40033002B15D10123B1
:1027DC007FE07B685B68022B07D1414B1B6803F0E1
:1027EC000073002B09D1012373E03D4B1B6803F0F0
:1027FC000203002B01D101236BE0394B5B6823F002
:10280C0003027B685B68364913434B60FFF72CFA75
:10281C00F8600AE0FFF728FA0246FB68D31A41F287
:10282C008832934201D9032353E02D4B5B6803F0AC
:10283C000C027B685B689B009A42EBD1274B1B68B0
:10284C0003F007033A689A4210D2244B1B6823F01A
:10285C00070222493B6813430B60204B1B6803F0B3
:10286C0007033A689A4201D0012332E07B681B6867
:10287C0003F00403002B08D0194B5B6823F4E062CF
:10288C007B68DB68164913434B607B681B6803F05D
:10289C000803002B09D0124B5B6823F460527B6851
:1028AC001B69DB000E4913434B6000F021F8024614
:1028BC000B4B5B681B0903F00F030A49CB5C22FA34
:1028CC0003F3094A1360094B1B681846FFF78AF992
:1028DC00002318461037BD4680BD00BF00200240C3
:1028EC000010024008320008680000206C00002034
:1028FC0080B487B000AF0023FB600023BB600023D3
:10290C007B6100237B6000233B611E4B5B68FB609B
:10291C00FB6803F00C03042B02D0082B03D027E038
:10292C00194B3B6127E0FB689B0C03F00F03174A24
:10293C00D35C7B60FB6803F48033002B10D0114B0D
:10294C005B685B0C03F00103114AD35CBB607B68D2
:10295C000D4A02FB03F2BB68B2FBF3F37B6104E0AC
:10296C007B680C4A02FB03F37B617B693B6102E0F1
:10297C00054B3B6100BF3B6918461C37BD4680BC0C
:10298C00704700BF0010024000127A001832000895
:10299C002832000800093D0080B485B000AF786093
:1029AC000A4B1B680A4AA2FB03235B0A7A6802FBE8
:1029BC0003F3FB6000BFFB685A1EFA60002BF9D1D1
:1029CC0000BF00BF1437BD4680BC704768000020B4
:1029DC00D34D621080B582B000AF78607B68002B5D
:1029EC0001D1012341E07B6893F83D30DBB2002B31
:1029FC0006D17B68002283F83C207868FFF75AF8F0
:102A0C007B68022283F83D207B681A687B6804335C
:102A1C001946104600F056FA7B68012283F84620CE
:102A2C007B68012283F83E207B68012283F83F20DB
:102A3C007B68012283F840207B68012283F84120C7
:102A4C007B68012283F842207B68012283F84320B3
:102A5C007B68012283F844207B68012283F845209F
:102A6C007B68012283F83D20002318460837BD46B9
:102A7C0080BD000080B485B000AF78607B6893F8AF
:102A8C003D30DBB2012B01D0012335E07B68022203
:102A9C0083F83D207B681B68DA687B681B6842F012
:102AAC000102DA607B681B68164A934209D07B6886
:102ABC001B68B3F1804F04D07B681B68124A9342A9
:102ACC0011D17B681B689B6803F00703FB60FB68F4
:102ADC00062B10D07B681B681A687B681B6842F059
:102AEC0001021A6007E07B681B681A687B681B6828
:102AFC0042F001021A60002318461437BD4680BC10
:102B0C00704700BF002C01400004004080B584B029
:102B1C0000AF78607B681B68DB68FB607B681B68B8
:102B2C001B69BB60BB6803F00203002B20D0FB6861
:102B3C0003F00203002B1BD07B681B686FF00202B2
:102B4C001A617B6801221A777B681B689B6903F00A
:102B5C000303002B03D0786800F098F905E078683F
:102B6C0000F08BF9786800F09AF97B6800221A77EC
:102B7C00BB6803F00403002B20D0FB6803F00403B4
:102B8C00002B1BD07B681B686FF004021A617B68FA
:102B9C0002221A777B681B689B6903F44073002B35
:102BAC0003D0786800F072F905E0786800F065F9F8
:102BBC00786800F074F97B6800221A77BB6803F020
:102BCC000803002B20D0FB6803F00803002B1BD05C
:102BDC007B681B686FF008021A617B6804221A7705
:102BEC007B681B68DB6903F00303002B03D0786858
:102BFC0000F04CF905E0786800F03FF9786800F0D7
:102C0C004EF97B6800221A77BB6803F01003002B87
:102C1C0020D0FB6803F01003002B1BD07B681B68D3
:102C2C006FF010021A617B6808221A777B681B68A8
:102C3C00DB6903F44073002B03D0786800F026F9AD
:102C4C0005E0786800F019F9786800F028F97B68DD
:102C5C0000221A77BB6803F00103002B0CD0FB6831
:102C6C0003F00103002B07D07B681B686FF0010297
:102C7C001A617868FEF74EFDBB6803F08003002BE9
:102C8C000CD0FB6803F08003002B07D07B681B681B
:102C9C006FF080021A61786800F06FFABB6803F07D
:102CAC004003002B0CD0FB6803F04003002B07D033
:102CBC007B681B686FF040021A61786800F0F8F8C6
:102CCC00BB6803F02003002B0CD0FB6803F020033F
:102CDC00002B07D07B681B686FF020021A617868A4
:102CEC0000F042FA00BF1037BD4680BD80B584B0FD
:102CFC0000AF786039600023FB737B6893F83C303D
:102D0C00012B01D10223B4E07B68012283F83C2023
:102D1C007B68022283F83D207B681B689B68BB6044
:102D2C00BB6823F07703BB60BB6823F47F43BB60B5
:102D3C007B681B68BA689A603B681B68B3F5005FD8
:102D4C003ED0B3F5005F00F28780B3F5805F00F0F2
:102D5C008680B3F5805F7FD8702B1AD0702B7BD810
:102D6C00602B50D0602B77D8502B3CD0502B73D885
:102D7C00402B58D0402B6FD8302B64D0302B6BD8D5
:102D8C00202B60D0202B67D8002B5CD0102B5AD076
:102D9C0062E07B6818683B6899683B685A683B68D6
:102DAC00DB6800F06AF97B681B689B68BB60BB68DA
:102DBC0043F07703BB607B681B68BA689A604FE08E
:102DCC007B6818683B6899683B685A683B68DB68A5
:102DDC0000F053F97B681B689A687B681B6842F4A7
:102DEC0080429A603CE07B6818683B6859683B6895
:102DFC00DB681A4600F0CAF87B681B68502118463D
:102E0C0000F021F92CE07B6818683B6859683B6836
:102E1C00DB681A4600F0E8F87B681B6860211846EE
:102E2C0000F011F91CE07B6818683B6859683B6836
:102E3C00DB681A4600F0AAF87B681B68402118462C
:102E4C0000F001F90CE07B681A683B681B681946B6
:102E5C00104600F0F8F803E00123FB7300E000BF1C
:102E6C007B68012283F83D207B68002283F83C209C
:102E7C00FB7B18461037BD4680BD80B483B000AFD5
:102E8C00786000BF0C37BD4680BC704780B483B0FF
:102E9C0000AF786000BF0C37BD4680BC704780B473
:102EAC0083B000AF786000BF0C37BD4680BC704764
:102EBC0080B483B000AF786000BF0C37BD4680BCD7
:102ECC007047000080B485B000AF786039607B68D3
:102EDC001B68FB607B682B4A934207D07B68B3F17D
:102EEC00804F03D07B68284A934208D1FB6823F0BB
:102EFC007003FB603B685B68FA681343FB607B689C
:102F0C00204A934207D07B68B3F1804F03D07B6893
:102F1C001D4A934208D1FB6823F44073FB603B6865
:102F2C00DB68FA681343FB60FB6823F080023B68A4
:102F3C005B691343FB607B68FA681A603B689A68AC
:102F4C007B68DA623B681A687B689A627B680D4A18
:102F5C00934203D13B681A697B681A637B68012230
:102F6C005A617B681B6903F00103002B05D07B6859
:102F7C001B6923F001027B681A6100BF1437BD4640
:102F8C0080BC7047002C01400004004080B487B026
:102F9C0000AFF860B9607A60FB681B6A7B61FB6804
:102FAC001B6A23F00102FB681A62FB689B693B6198
:102FBC003B6923F0F0033B617B681B013A691343C7
:102FCC003B617B6923F00A037B617A69BB6813431D
:102FDC007B61FB683A699A61FB687A691A6200BF87
:102FEC001C37BD4680BC704780B487B000AFF8601A
:102FFC00B9607A60FB681B6A7B61FB681B6A23F013
:10300C001002FB681A62FB689B693B613B6923F405
:10301C0070433B617B681B033A6913433B617B69DB
:10302C0023F0A0037B61BB681B017A6913437B61AE
:10303C00FB683A699A61FB687A691A6200BF1C37AF
:10304C00BD4680BC704780B485B000AF78603960F5
:10305C007B689B68FB60FB6823F07003FB603A683D
:10306C00FB68134343F00703FB607B68FA689A60C4
:10307C0000BF1437BD4680BC704780B487B000AF2A
:10308C00F860B9607A603B60FB689B687B617B6928
:10309C0023F47F437B613B681A027B681A43BB684D
:1030AC0013437A6913437B61FB687A699A6000BFAA
:1030BC001C37BD4680BC704780B485B000AF7860CB
:1030CC0039607B6893F83C30012B01D1022341E03D
:1030DC007B68012283F83C207B68022283F83D2028
:1030EC007B681B685B68FB607B681B689B68BB60CC
:1030FC00FB6823F07003FB603B681B68FA681343A2
:10310C00FB607B681B68FA685A607B681B68144A12
:10311C00934209D07B681B68B3F1804F04D07B6865
:10312C001B68104A93420CD1BB6823F08003BB6030
:10313C003B685B68BA681343BB607B681B68BA6802
:10314C009A607B68012283F83D207B68002283F81B
:10315C003C20002318461437BD4680BC704700BF86
:10316C00002C01400004004080B483B000AF7860B4
:10317C0000BF0C37BD4680BC704780B483B000AF35
:10318C00786000BF0C37BD4680BC704770B5002618
:10319C000C4D0D4C641BA410A64209D100F022F872
:1031AC0000260A4D0A4C641BA410A64205D170BD22
:1031BC0055F8043B98470136EEE755F8043B984721
:1031CC000136F2E72C3200082C3200082C320008B1
:1031DC003032000803460244934200D1704703F892
:1031EC00011BF9E7F8B500BFF8BC08BC9E46704758
:0C31FC00F8B500BFF8BC08BC9E46704748
:10320800000000000000000001020304060708098E
:1032180002030405060708090A0B0C0D0E0F10100F
:04322800010200009F
:04322C003101000864
:043230000D01000884
:1032340000080140000801400008014040008000EF
:103244000001000001000000010000000100000076
:103254000100000001000000010000000100000066
:103264000100000001000000010000000100000056
:1032740001000000F4010000F4010000F40100006A
:1032840001000000010000000A0000000500000029
:10329400020000000300000000127A001000000089
:0432A4000100000025
:0400000508001B795B
:00000001FF
